:020000040800F2
:1000000000000120E9290008E5290008E529000889
:10001000E5290008E5290008E5290008000000009E
:100020000000000000000000E5290008E5290008A4
:10003000E5290008E5290008E52900080D28000841
:10004000E5290008E5290008E5290008E529000858
:10005000012000080D200008E5290008E529000816
:10006000E5290008E5290008E5290008E529000838
:10007000E5290008E5290008E5290008E529000828
:10008000E5290008E5290008E5290008E529000818
:10009000E5290008E529000811120008E5290008F3
:1000A000E5290008E5290008DD0B0008910B000890
:1000B000E5290008E5290008E529000800000000FE
:1000C0000000000000000000000000000000000030
:1000D000000000000000000000000000E52900080A
:1000E00000000000E5290008E5290008E5290008CE
:1000F000E5290008E5290008E5290008E5290008A8
:10010000E52900080000000079240008E52900081E
:10011000E5290008E5290008E5290008E529000887
:10012000E5290008E5290008E5290008E529000877
:10013000E5290008E5290008E5290008E529000867
:10014000E5290008E5290008E5290008E529000857
:10015000E5290008E5290008E5290008E529000847
:10016000E5290008E5290008000000000000000063
:1001700010B5054C237833B9044B13B10448AFF3E1
:1001800000800123237010BD400200200000000009
:100190005C9F000808B5034B1BB103490348AFF34C
:1001A000008008BD00000000440200205C9F0008A1
:1001B00081F0004102E000BF83F0004330B54FEA18
:1001C00041044FEA430594EA050F08BF90EA020F85
:1001D0001FBF54EA000C55EA020C7FEA645C7FEA18
:1001E000655C00F0E2804FEA5454D4EB5555B8BF3B
:1001F0006D420CDD2C4480EA020281EA030382EAAC
:10020000000083EA010180EA020281EA0303362D3D
:1002100088BF30BD11F0004F4FEA01314FF4801C10
:100220004CEA113102D0404261EB410113F0004F22
:100230004FEA03334CEA133302D0524263EB4303D9
:1002400094EA050F00F0A780A4F10104D5F1200E77
:100250000DDB02FA0EFC22FA05F2801841F10001D2
:1002600003FA0EF2801843FA05F359410EE0A5F1A6
:1002700020050EF1200E012A03FA0EFC28BF4CF0D7
:10028000020C43FA05F3C01851EBE37101F000458D
:1002900007D54FF0000EDCF1000C7EEB00006EEB9A
:1002A0000101B1F5801F1BD3B1F5001F0CD3490824
:1002B0005FEA30004FEA3C0C04F101044FEA44527B
:1002C00012F5800F80F09A80BCF1004F08BF5FEA02
:1002D000500C50F1000041EB045141EA050130BDE2
:1002E0005FEA4C0C404141EB0101013C28BFB1F5F4
:1002F000801FE9D291F0000F04BF01460020B1FA3F
:1003000081F308BF2033A3F10B03B3F120020CDA11
:100310000C3208DD02F1140CC2F10C0201FA0CF0EF
:1003200021FA02F10CE002F11402D8BFC2F1200C54
:1003300001FA02F120FA0CFCDCBF41EA0C0190400A
:10034000E41AA2BF01EB0451294330BD6FEA040453
:100350001F3C1CDA0C340EDC04F11404C4F120023E
:1003600020FA04F001FA02F340EA030021FA04F350
:1003700045EA030130BDC4F10C04C4F1200220FAA7
:1003800002F001FA04F340EA0300294630BD21FAE5
:1003900004F0294630BD94F0000F83F4801306BFAB
:1003A00081F480110134013D4EE77FEA645C18BF9F
:1003B0007FEA655C29D094EA050F08BF90EA020F36
:1003C00005D054EA000C04BF1946104630BD91EA2E
:1003D000030F1EBF0021002030BD5FEA545C05D131
:1003E0004000494128BF41F0004130BD14F5800470
:1003F0003CBF01F5801130BD01F0004545F0FE41E4
:1004000041F470014FF0000030BD7FEA645C1ABF18
:10041000194610467FEA655C1CBF0B46024650EA4F
:10042000013406BF52EA033591EA030F41F400217B
:1004300030BD00BF90F0000F04BF0021704730B501
:100440004FF4806404F132044FF000054FF00001D6
:1004500050E700BF90F0000F04BF0021704730B597
:100460004FF4806404F1320410F0004548BF40426C
:100470004FF000013EE700BF42004FEAE2014FEAC1
:1004800031014FEA02701FBF12F07F4393F07F4F9C
:1004900081F06051704732F07F4208BF704793F09F
:1004A0007F4F04BF41F40021704730B54FF46074B2
:1004B00001F0004521F000411CE700BF50EA0102B5
:1004C00008BF704730B54FF000050AE050EA01025E
:1004D00008BF704730B511F0004502D5404261EBCE
:1004E00041014FF4806404F132045FEA915C3FF40F
:1004F000D8AE4FF003025FEADC0C18BF03325FEAAC
:10050000DC0C18BF033202EBDC02C2F1200300FA5C
:1005100003FC20FA02F001FA03FE40EA0E0021FA81
:1005200002F11444BDE600BF034613F8012B002A74
:10053000FBD1181A013870470000000000000000CD
:1005400001F0FF01102A2BDB10F0070F08D010F884
:10055000013B013A8B422DD010F0070F42B3F6D188
:10056000F0B441EA012141EA014122F007047FF0A1
:1005700000070023F0E80256083C85EA010586EAF8
:10058000010685FA47F5A3FA87F586FA47F6A5FA34
:1005900087F68EB9EED1F0BC01F0FF0102F0070240
:1005A00032B110F8013B013A83EA010313B1F8D1EB
:1005B0000020704701387047002D06BF35460338CC
:1005C000073815F0010F07D1013015F4807F02BF05
:1005D000013015F4C03F0130F0BC0138704700BF56
:1005E00070B54FF0FF0C4CF4E06C1CEA11541DBFC9
:1005F0001CEA135594EA0C0F95EA0C0F00F0DEF894
:100600002C4481EA030621EA4C5123EA4C5350EA78
:10061000013518BF52EA033541F4801143F48013C9
:1006200038D0A0FB02CE4FF00005E1FB02E506F05A
:100630000042E0FB03E54FF00006E1FB03569CF0AF
:10064000000F18BF4EF0010EA4F1FF04B6F5007FB5
:1006500064F5407404D25FEA4E0E6D4146EB060627
:1006600042EAC62141EA55514FEAC52040EA5E50B0
:100670004FEACE2EB4F1FD0C88BFBCF5E06F1ED85A
:10068000BEF1004F08BF5FEA500E50F1000041EB91
:10069000045170BD06F0004646EA010140EA02003E
:1006A00081EA0301B4EB5C04C2BFD4EB0C0541EA60
:1006B000045170BD41F480114FF0000E013C00F375
:1006C000AB8014F1360FDEBF002001F0004170BD99
:1006D000C4F10004203C35DA0C341BDC04F11404B2
:1006E000C4F1200500FA05F320FA04F001FA05F23E
:1006F00040EA020001F0004221F0004110EBD3700B
:1007000021FA04F642EB06015EEA430E08BF20EA36
:10071000D37070BDC4F10C04C4F1200500FA04F3D9
:1007200020FA05F001FA04F240EA020001F000416B
:1007300010EBD37041F100015EEA430E08BF20EADE
:10074000D37070BDC4F1200500FA05F24EEA020E26
:1007500020FA04F301FA05F243EA020321FA04F055
:1007600001F0004121FA04F220EA020000EBD3700C
:100770005EEA430E08BF20EAD37070BD94F0000F0C
:100780000FD101F00046400041EB010111F4801F40
:1007900008BF013CF7D041EA060195F0000F18BFF1
:1007A000704703F00046520043EB030313F4801F2D
:1007B00008BF013DF7D043EA0603704794EA0C0FE7
:1007C0000CEA135518BF95EA0C0F0CD050EA4106FD
:1007D00018BF52EA4306D1D181EA030101F000417A
:1007E0004FF0000070BD50EA410606BF10461946A2
:1007F00052EA430619D094EA0C0F02D150EA0136AE
:1008000013D195EA0C0F05D152EA03361CBF1046EE
:1008100019460AD181EA030101F0004141F0FE418D
:1008200041F470014FF0000070BD41F0FE4141F411
:10083000780170BD70B54FF0FF0C4CF4E06C1CEA11
:1008400011541DBF1CEA135594EA0C0F95EA0C0FC6
:1008500000F0A7F8A4EB050481EA030E52EA033581
:100860004FEA013100F088804FEA03334FF08055A2
:1008700045EA131343EA12634FEA022245EA1115CF
:1008800045EA10654FEA00260EF000419D4208BF80
:10089000964244F1FD0404F5407402D25B084FEA2D
:1008A0003202B61A65EB03055B084FEA32024FF4D9
:1008B00080104FF4002CB6EB020E75EB030E22BF36
:1008C000B61A754640EA0C005B084FEA3202B6EBF6
:1008D000020E75EB030E22BFB61A754640EA5C00A5
:1008E0005B084FEA3202B6EB020E75EB030E22BF35
:1008F000B61A754640EA9C005B084FEA3202B6EB36
:10090000020E75EB030E22BFB61A754640EADC00F4
:1009100055EA060E18D04FEA051545EA16754FEA56
:1009200006164FEAC30343EA52734FEAC2025FEA74
:100930001C1CC0D111F4801F0BD141EA00014FF003
:1009400000004FF0004CB6E711F4801F04BF0143D4
:100950000020B4F1FD0C88BFBCF5E06F3FF6AFAEF0
:10096000B5EB030C04BFB6EB020C5FEA500C50F180
:10097000000041EB045170BD0EF0004E4EEA113103
:1009800014EB5C04C2BFD4EB0C0541EA045170BD0A
:1009900041F480114FF0000E013C90E645EA060E4E
:1009A0008DE60CEA135594EA0C0F08BF95EA0C0F7C
:1009B0003FF43BAF94EA0C0F0AD150EA01347FF4C4
:1009C00034AF95EA0C0F7FF425AF104619462CE79B
:1009D00095EA0C0F06D152EA03353FF4FDAE1046FE
:1009E000194622E750EA410618BF52EA43067FF44F
:1009F000C5AE50EA41047FF40DAF52EA43057FF4DF
:100A0000EBAE12E74FF0FF3C06E000BF4FF0010CE9
:100A100002E000BF4FF0010C4DF804CD4FEA410C4D
:100A20007FEA6C5C4FEA430C18BF7FEA6C5C1BD01A
:100A300001B050EA410C0CBF52EA430C91EA030F9B
:100A400002BF90EA020F0020704710F1000F91EAF8
:100A5000030F58BF994208BF90422CBFD8176FEAC6
:100A6000E37040F0010070474FEA410C7FEA6C5C94
:100A700002D150EA013C07D14FEA430C7FEA6C5C9B
:100A8000D6D152EA033CD3D05DF8040B704700BFC7
:100A90008446104662468C461946634600E000BF15
:100AA00001B5FFF7B7FF002848BF10F1000F01BDE7
:100AB0004DF808EDFFF7F4FF0CBF012000205DF8B2
:100AC00008FB00BF4DF808EDFFF7EAFF34BF012037
:100AD00000205DF808FB00BF4DF808EDFFF7E0FFD0
:100AE00094BF012000205DF808FB00BF4DF808ED21
:100AF000FFF7CEFF94BF012000205DF808FB00BF88
:100B00004DF808EDFFF7C4FF34BF012000205DF869
:100B100008FB00BF4FEA410C7FEA6C5C02D150EA4F
:100B2000013C0AD14FEA430C7FEA6C5C02D152EAE5
:100B3000033C02D14FF0000070474FF001007047B6
:100B40004FEA410212F5001215D211D56FF47873F5
:100B5000B3EB625212D94FEAC12343F0004343EA98
:100B6000505311F0004F23FA02F018BF4042704773
:100B70004FF00000704750EA013005D111F00040FD
:100B800008BF6FF0004070474FF00000704700BF93
:100B900038B50F4D0F4A2B78D2F820440BB1022CF8
:100BA00003D00D4BC3F8204438BD281D01F082F955
:100BB0000028F6D02B7B002BF3D16879AB792A790A
:100BC000EA81012103EB002329732B82E9E700BFAF
:100BD0005C02002000C0034000E0034038B50F4D28
:100BE0000F4A2B78D2F820440BB1022C03D00D4BC6
:100BF000C3F8204438BD281D01F05CF90028F6D068
:100C00002B7B002BF3D16879AB792A79EA8101211A
:100C100003EB002329732B82E9E700BF5C0200206D
:100C200000C0034000E003402DE9F04184B00024FF
:100C3000ADF80C4001252246204640F2071358210A
:100C4000009500F0C9FF04F158039BB22C340095C5
:100C5000AF2219460020A4B200F0BEFFB02CEAD1AA
:100C6000AF22104640F207135821009500F0B4FF60
:100C700040F207130095AF221946002000F0ACFFA8
:100C8000DFF84080672500274646102420462C3494
:100C900016F801CB0097012303AA2946A4B28DF8C8
:100CA0000CC000F07BFEC02CF0D12C35ADB240F270
:100CB00017139D4208F10408E6D100F0B1FD04B01D
:100CC000BDE8F0810000002070B50546441E00F12B
:100CD0000F0601F0A5FD14F8013F00F00400B44236
:100CE0002A5C22702B54F4D170BD00BF9C4A9D4BEE
:100CF000516EF0B54FF480345C66546E4FF0004096
:100D000002F50C225866506C4AF6CD3383B001F4DC
:100D1000803100F001001364536BDE07FCD4924B6A
:100D200001225A60914A136BDD07FCD5904BD3F832
:100D300008369B0703D48C4B4FF48022DA6510B140
:100D40008A4B8C4A1A64002C03DB8B4B4FF0004219
:100D50005A6619B9884B4FF480325A6601F0B4FBD9
:100D600000F094FA00F0FCFA00F09CF901F0E0FBCE
:100D700001F03EFC01F05EFA01F0D0F87F4B804DAF
:100D80004FF400711022196401241A644FF47A7030
:100D90002C7001F02FFD7B497B48CB680A684968BD
:100DA0009BB2120E89B201F0C7FC002000F0A4FD36
:100DB00000F046FB00F07CFC204600F091FD00F0C6
:100DC0004BFC85F81C4401F049F8062885F81D0401
:100DD00000F0BD80362800F0BC80642800F09B80C5
:100DE0006A4B002285F81C240FCB05F58464264647
:100DF00007C626F8023B1A0C32706549654801F0B7
:100E00009BFC0021624A00910123084600F0C6FDC8
:100E100000F0BCFA00F0BAFA00F0D2FA30B1434266
:100E200003EA000230EA030300F095805A4B0FCB2F
:100E300084E80F0000F094FA584E554955480027B1
:100E400001F07AFC524A009701231421384600F041
:100E5000A5FD01F087FA304601F048FA328845F6E0
:100E60000D539A426CD1B3784D49DB0103F4F04342
:100E70000120BB4286F8000118BF1A464448C6F854
:100E8000043108BF4FF4006204F088FD4049414836
:100E9000444C454F002601F04FFC01233C4A00968C
:100EA0002821304600F07AFD40F252226E213F4860
:100EB00000F074FC00F0FEFA00F0B2FC00F0B0FCB0
:100EC000012000F00DFD00F0ABFC3948FFF7FCFEFF
:100ED000364840F25222162100F060FCFFF7A4FED3
:100EE00000F09EFC00F0B8FB4FF4FA7001F082FCB9
:100EF000A5F8A064237813B1B5F8A01499B92670A9
:100F000001F0C8F8C5F8A4040028F3D0C8280ED80A
:100F100001F070F9EEE7274B0FCB05F58464264608
:100F200007C6337069E7244801F006FCE0E7B5F82E
:100F3000A0043946431CA5F8A03401F03FFAE7E7C6
:100F40001E4B86F800710FCB84E80F009EE71C4B08
:100F5000E2E71C4BE0E71C490D4804F01FFD69E780
:100F600000800040009000400060094000400940BF
:100F700000C007403254FFFF00A0004000D00340F3
:100F80005C0200200080E00FC49A00081C9B00084F
:100F90007C0600202C9B0008409B0008C8470020CE
:100FA000509B0008A4230020A8230020847F000871
:100FB000000000200C9B00086C9B00085C9B000854
:100FC000EC9A0008FC9A0008349B000870B51F4C8E
:100FD0002378F3B1064650B302F0E6FE237CDBB182
:100FE00094F82030BBB194F8303023B394F84030FB
:100FF0001BB394F85030E3B194F86030FBB194F82F
:101000007030F3B194F88030EBB102F0D1FE1048AB
:1010100070BD104870BD012304EB0314002533603C
:1010200001232374656002F0C3FE284670BD0A48A0
:1010300070BD0423F0E70223EEE70323ECE705236A
:10104000EAE70623E8E70723E6E700BF440B0020B2
:10105000048000F0028000F0018000F038B50D4DF2
:101060002B78A3B1072804460FD805EB041402F02F
:101070009BFE237C1BB902F09BFE074838BD002570
:10108000257402F095FE284638BD044838BD044852
:1010900038BD00BF440B0020068000F0018000F046
:1010A000028000F030B5164B164D1A6883B000234D
:1010B00001928DF8043002F077FE2C78DCB9012320
:1010C0002B7002F075FE022301A82C7485F82040D5
:1010D00085F8304085F8404085F8504085F86040FC
:1010E00085F8704085F880408DF8073003F096FD54
:1010F000204603B030BD02F05BFE034803B030BDB4
:10110000D8810008440B0020038000F02DE9F04353
:101110003A4C85B0154622789DF830809DF838C04D
:10112000002A55D007284FD8002D4DD0002B4BD08A
:101130000D9AB2F5006F47DC04EB00120701127C38
:10114000002A58D004EB4016002206F18409C6E9B3
:101150002222C6F88420C6F89020CDE9012203920D
:1011600004F1840643F21002A9F802204FEA401E5F
:1011700006EB4012B8F1000F2ED004EB0E08C8E9C0
:1011800022350D9B00911E4D56F80E100CF0030CED
:10119000013B4FEA8C6CC3F30A030D404CEA031386
:1011A0002B4346F80E300F9BEBB13C440F9B636022
:1011B000109B0025C4E902356946657403F060FDA3
:1011C000284605B0BDE8F0830E4805B0BDE8F083C1
:1011D0000D4805B0BDE8F08399F8038048F0030896
:1011E00089F80380C9E7194698F8863061F304133B
:1011F00088F88630D9E70548E3E700BF440B0020B4
:101200000F80FFF3018000F0028000F0078000F003
:101210002DE9F8431A4B1F6D5B6D1F401ED4194C0E
:10122000DFF8648001260025A4F1040937420CD0C0
:101230002368C8F8506028463BB1D4E90121013148
:10124000A1609847637B012B09D00135082D4FEA37
:10125000460604F11004E9D1BDE8F883FEE7002852
:10126000F3D109EB451393F8902060F3410283F822
:10127000902093F8A02060F3410283F8A020E4E7D7
:1012800000000440480B00200020044010B52E4C04
:101290000FCC88B00DF1040CACE80F0094E8070007
:1012A00001248CE80700294B0393214629208DF85F
:1012B000124001F059FC21463A2001F055FC03216F
:1012C00008460023042203F025FA002318460422CE
:1012D000062103F01FFA224620460421002303F0D2
:1012E00019FA022223461146032003F013FA23467B
:1012F00004220021022003F00DFA022123460846B1
:10130000042203F007FA022223461046214603F086
:1013100001FA002304220321022003F0FBF901A9B2
:101320000B4803F017FE0B4B0B480C494FF002140F
:101330001C22C3F8B047C3F8A807C3F8AC17C3F81A
:10134000982708B010BD00BF0C8200088096980056
:1013500000C0054000C0034002000100020003007D
:1013600038B5084B084803F5805503F500530124B0
:10137000C5F8A0407921C3F8A04003F061FEC5F88C
:10138000A04038BD00C0034000C0054038B50A4B3E
:101390000A4803F5805503F500530124C5F8A04021
:1013A000AB21C3F8A04003F04BFEC5F8A040204697
:1013B000BDE8384001F01EBA00C0034000C005403F
:1013C0001C4B1D48012270B55A21C3F8A02003F020
:1013D00037FE0B241848002103F032FE013C14F0C4
:1013E000FF040546F6D11448134E21460135EDB2EF
:1013F00003F026FEED000335013400213046E4B24F
:1014000003F01EFEAC42F7DD0B4E04240022002147
:101410003046150A03F014FE631E13F0FF0445EA7C
:101420000062F4D10121054B5018C3F8A010400B05
:1014300070BD00BF00E0034000C0054000D0034085
:1014400070B5184E184D4024012001F0D3F9052045
:10145000346401F0CFF90A202C6401F0CBF90520A7
:10146000346401F0C7F90423C5F8D030052001F039
:10147000C1F90E4A536FD906FCD40A4B0C48042418
:101480000822C3F8D0201221C3F8D04003F0D8FDC1
:10149000054B064AC3F8D040C3F8D040536FDB0673
:1014A000FCD470BD00E0034000D0034000C0034006
:1014B00000C005402DE9F041634E644D40240120F9
:1014C00001F098F90520346401F094F90A202C64A5
:1014D00001F090F90520346401F08CF90423C5F87B
:1014E000D030052001F086F9594A536FD806FCD454
:1014F000554B584804240822C3F8D0201221C3F8C1
:10150000D04003F09DFD514B514AC3F8D040C3F881
:10151000D040536FD906FCD44C4D4B4E4D4804245B
:101520000827C5F8D0401821C6F8D040C6F8D070BA
:1015300003F086FDC5F8D0408021C5F8D07045483D
:10154000C5F8D040C6F8D04003F07AFDC5F8D040C9
:101550002221C5F8D0403F48C6F8D040C6F8D07028
:1015600003F06EFDC5F8D040B121C5F8D070394800
:10157000C5F8D040C6F8D04003F062FDC5F8D040B1
:101580003448C5F8D0402021C6F8D040C6F8D07005
:1015900003F056FD2E4BC5F8D0405C6F14F01004DC
:1015A000FBD12A4E284F2B4804254FF00808C6F8D7
:1015B000D0501A21C7F8D050C7F8D08003F040FDB2
:1015C000C6F8D0506421C6F8D0802248C6F8D05062
:1015D000C7F8D05003F034FDC6F8D0502146C6F805
:1015E000D0801C48C6F8D050C7F8D05003F028FD72
:1015F000C6F8D0502221C6F8D0501648C7F8D050AF
:10160000C7F8D08003F01CFDC6F8D0509121C6F871
:10161000D0801048C6F8D050C7F8D05003F010FD65
:10162000C6F8D0500B48C6F8D0502021C7F8D0508B
:10163000C7F8D08003F004FD054AC6F8D050536FB8
:10164000DB06FCD4BDE8F08100E0034000D003409D
:1016500000C0034000C005402DE9F041124DDFF805
:101660004C8005F5805605F5005504240827C6F87A
:10167000D0401021C5F8D0404046C5F8D07003F0E6
:10168000DFFCC6F8D0404046C6F8D0700121C6F84D
:10169000D040C5F8D04003F0D3FCC6F8D040642059
:1016A000BDE8F04101F0A6B800C0034000C005400D
:1016B0002DE9F041354E364F364804254FF00808E5
:1016C000C6F8D0502421C7F8D050C7F8D08003F016
:1016D000B7FC41F2B064C6F8D050C7F8D050C6F895
:1016E000D0802C48FF2103F0ABFC013CF9D1274E00
:1016F000274F284804254FF00808C6F8D050262167
:10170000C6F8D050C7F8D050C7F8D08003F098FC86
:1017100041F2B064C6F8D050C7F8D050C6F8D080B7
:101720001C48FF2103F08CFC013CF9D1174D184EE9
:10173000184804240827C5F8D0402221C5F8D04015
:10174000C6F8D040C6F8D07003F07AFCC5F8D04097
:10175000F721C5F8D0700F48C5F8D040C6F8D04082
:1017600003F06EFCC5F8D0400A48C5F8D0402021EF
:10177000C6F8D040C6F8D07003F062FC064AC5F83F
:10178000D040536FDB06FCD4BDE8F08100D00340AD
:1017900000E0034000C0054000C00340002A3BD0E9
:1017A00070B51E4E162401FB04F43319411C5D1A5A
:1017B000022D26D9A2F109054FF6F67C654520D801
:1017C00095088446002101315CF804EB43F804EBF2
:1017D0008D42F8D822F003018A4200EB01058BB25A
:1017E0000ED03444405C6054591C89B28A4207D9F7
:1017F00002339BB2687860549A4201D9AA78E254C5
:1018000070BD013B024400E0013111F8010C03F806
:10181000010F9142F8D170BD704700BFCC0C002081
:101820002DE9F041284E294F29482A4C04254FF034
:101830000808C7F8D0502421C6F8D050C6F8D08088
:1018400003F0FEFBC7F8D050C6F8D050224E204D12
:10185000C7F8D08014F8011B284603F0F1FBB4420E
:10186000F8D11A4D184E1A4804240827C5F8D0405C
:101870002221C5F8D040C6F8D040C6F8D07003F099
:10188000DFFBC5F8D040FF21C5F8D0701048C5F87F
:10189000D040C6F8D04003F0D3FBC5F8D04020219B
:1018A000C5F8D0400A48C6F8D040C6F8D07003F05A
:1018B000C7FBC5F8D040012000F09CFF074A536FDA
:1018C000DB06FCD4BDE8F08100E0034000D003401B
:1018D00000C00540CC0C00207C23002000C0034049
:1018E000003818BF0120414241F2B0620148C9B23C
:1018F00003F0E2BBCC0C0020014B1880704700BF06
:10190000C80C0020234B1B88B42B39D029D82BB10D
:101910005A2B3DD1C1F1AF03014698B2C0F1AF00DF
:1019200080B2B0282AD8B1F5847F27D801EB810393
:1019300001EB4301490001EBD00110B489B2164C10
:1019400000F0070014F801C0802343FA00F0012AD8
:101950000CBF2CEA000040EA0C0060545DF8044B18
:101960007047B3F5877F0AD1C0F583730846C0F18D
:10197000AF0080B20133B02899B2D4D97047704714
:10198000C1F58371C0F1AF00013180B289B2C5E702
:10199000704700BFC80C0020CC0C00202DE9F04F90
:1019A0008BB098460890BDF850A0099210468B461F
:1019B000FEF7BAFDD04506BFB8FA88F80023012328
:1019C000079008BF4FEA58180393002800F0FF80E3
:1019D0000BF1080300229BB2049306921346099A66
:1019E00012F80390069B7B4A03EB4305089B03EB2D
:1019F0008505A9F12009ADB25FFA89F905F10C035B
:101A00009BB209EB490902EBC90202930BF10703F0
:101A10000192059361E0F20700F1CB80FB0704D54A
:101A2000049942462846FFF76DFFB40700F1B980DC
:101A3000B80706D50BF1090189B242462846FFF7DF
:101A400061FF710700F1A5807A0706D50BF10A0145
:101A500089B242462846FFF755FF330700F19180CF
:101A60003C0706D50BF10B0189B242462846FFF729
:101A700049FFF0067DD4F90606D50BF10C0189B2B9
:101A800042462846FFF73EFFB2066AD4BB0606D59B
:101A90000BF10D0189B242462846FFF733FF740669
:101AA00057D4780606D50BF10E0189B24246284676
:101AB000FFF728FF310645D43A0606D50BF10F0192
:101AC00089B242462846FFF71DFF019B02330135CC
:101AD0000193029BADB2AB4271D0019B1E785F783F
:101AE000039B002B97D0DDF81090002411E0FFF746
:101AF00009FF47FA04F3DB071ED44946524628463D
:101B0000FFF700FF013409F10109082C1FFA89F9D8
:101B1000DBD046FA04F30BEB0401DB07524689B233
:101B20002846E4D50BEB0401424689B2FFF7EAFEF2
:101B300047FA04F3DA07E0D5424649462846FFF75C
:101B4000E1FEDFE7BDF8141042462846FFF7DAFE53
:101B5000B2E70BF1060189B242462846FFF7D2FEF2
:101B60009FE70BF1050189B242462846FFF7CAFEFE
:101B70008CE70BF1040189B242462846FFF7C2FE0A
:101B800079E70BF1030189B242462846FFF7BAFE16
:101B900066E70BF1020189B242462846FFF7B2FE22
:101BA00052E70BF1010189B242462846FFF7AAFE2F
:101BB0003EE7424659462846FFF7A4FE2EE7069B1D
:101BC00007990133DBB28B420693FFF408AF0BB0E9
:101BD000BDE8F08F288200082DE9F04F154683B04C
:101BE000A842CDE900121E46BDF8302080F0A48046
:101BF0002F1A99423FB261D3CB1A4FF0FF341BB278
:101C00004FF001090094BB4260DA07EBD77C4FEA42
:101C10006C0C002F64D0002B00F0A0808D4C012AAA
:101C2000248800F0B580B42C0196DFF82CA2009E29
:101C3000C7F1000838D069D8002C74D05A2C21D1B3
:101C4000C1F1AF0292B28646C2F1AF0292B2B02A9F
:101C500018D8BEF5847F15D80EEB8E0B0EEB4B0E0D
:101C60004FEAD20B0BEB4E0E1FFA8EFE4FF0800B9D
:101C700002F007024BFA02F21AF80EB042EA0B0227
:101C80000AF80E20A84251D0E0454ADA4844ACEBAD
:101C9000030280B212B2634503DD3A44314412B20A
:101CA00089B2B42C9446C6D1C1F5837EC0F1AF028F
:101CB0000EF1010E92B21FFA8EFEC5E75B1A1BB23F
:101CC0004FF00109BB42CDF800909EDB03EBD37CC3
:101CD0004FEA6C0CCCF1000C0FFA8CFC002F9AD15F
:101CE000B14251D8A84209B228BF2846B14285B2B4
:101CF00009DC0C46A4B221460134284624B2FFF781
:101D000001FEB442F6DD03B0BDE8F08FB4F5877F85
:101D1000B8D1C0F5837E0EF1010E1FFA8EFE0A4681
:101D200092E76246B7E78E4602468DE7019A8A42FD
:101D3000AAD103B0BDE8F08F471B99423FB206D24B
:101D40005B1A01241BB24FF0FF3900945BE7CB1AFA
:101D50004FF0FF391BB2CDF8009054E7B14228BFD5
:101D60003146A8428EB202D9034628461D4600B22B
:101D7000A842C8DC84B2204631460134FFF7C2FDD8
:101D800020B2A842F6DDBEE70B4631461E46A9E763
:101D9000DFF8C4B00196C7F10008B42C38D041D8A0
:101DA000002C4ED05A2C20D1C1F1AF0292B28646FF
:101DB000C2F1AF0292B2B02A17D8BEF5847F14D810
:101DC0000EEB8E0A0EEB4A0E4FEA4E0E0EEBD20EC3
:101DD0001FFA8EFE02F007021BF80EA0802646FABC
:101DE00002F22AEA02020BF80E20A8422CD0C445C7
:101DF00025DD4844ACEB030280B212B29C451CDAEC
:101E0000009E3A443144B42C0FFA82FC89B2C6D108
:101E1000C1F5837EC0F1AF020EF1010E92B21FFA3E
:101E20008EFEC5E7B4F5877FDFD1C0F5837E0EF166
:101E3000010E1FFA8EFE0A46BAE79446ADE76246E7
:101E4000DCE78E460246B3E7019A9142CFD103B058
:101E5000BDE8F08FC80C0020CC0C002070B5124DEE
:101E6000124C2B46A32103F8141F114905F1180049
:101E7000C5E900130122E86029464FF096402A8107
:101E80002A8202F05DFE2668034606E002F014FD99
:101E90002268921B0A2A034603D8012B4FF0964072
:101EA000F4D0287E70BD00BF7C230020205200208B
:101EB00070000400F8B5164C164D2346022203F8B4
:101EC000142F154A2E68C4E9002304F118030122D7
:101ED000E3600746052321464FF096402382228186
:101EE00002F02EFE034606E002F0E6FC2A68921B92
:101EF0000A2A034603D8012B4FF09640F4D0A37E64
:101F00003B70E37E7B70237FBB70207EF8BD00BFFB
:101F10007C23002020520020700004002DE9F843AB
:101F200001213A2000F020FE0121242000F01CFEB7
:101F3000012125202A4C2B4DDFF8C0802A4F00F0CC
:101F400013FE0023012618464FF40029022208211F
:101F500002F0E0FBC5F8F8662246C5F8FC9640465C
:101F6000002102F071FFC5F81867C5F81C97BB691E
:101F70003343BB611D4B20221A60404604F110011F
:101F800002F00AFF04F12001384602F005FF184A6A
:101F9000206B02F1200102F073FE07F57037314625
:101FA000232000F0E1FD002541F2210246F26333D7
:101FB00004F138013846C4E90E2384F8415002F098
:101FC000EDFA01F0E9FE0B4B0B4AFE601D705D70EF
:101FD0009D7055725D60BDE8F84301F0E1BE00BF41
:101FE0001800002000D0034000C0044000E100E0E1
:101FF000289700089C230020BC4700200080044054
:10200000014B11225A61704700A004400349044B60
:102010000120112208725A61704700BF9C230020E2
:1020200000E00440194B002159729A780244D2B260
:102030009A705A78082A0ED05A7893F800C000FA9D
:1020400002F242EA0C02D2B21A705A780132D2B2CB
:1020500008465A7070479A78D20708D401225A72FB
:1020600000221A705A709A70587AC0B270475A6833
:102070000748511C596019781A44C9B211731A786B
:10208000D2B20262426A002AEAD1E7E79C2300202A
:1020900000800840524B53491B6B03EB43031B0169
:1020A00003F1804303F5802370B5DB6E01F5005426
:1020B0005B1AC3F34B0323802288638892B29BB2DE
:1020C0009A423FD063889BB25A1C92B2628031F828
:1020D00013309BB2E3806388C3F30B036380E38810
:1020E0009BB25E2B2ED9637AD8B2012BE3889BB2C8
:1020F00038D08C2B28D9A03B462B23D83A4E00232E
:10210000012086F80C3460722372FFF78BFFC8B190
:10211000354E7368032B06D9344A354B0021516282
:102120005B6A002B4BD001F037FE314B0122DA60A5
:10213000002535707570B5706572756001F030FE00
:10214000284670BD002070BD5E2B4FF00000F8D90E
:10215000254E0222012386F80C2463722072FFF7B9
:1021600061FFD4E7E62B1DD89F2B2AD85F3B2D2B90
:102170001D4ECED896F80C34002BC6D096F80C34F1
:10218000022B28D096F80C3403F0FF00DBB196F850
:102190000C34022B0AD10023012086F80C34FFF7FF
:1021A00041FFB4E7A3F582735A2BB1D80020FFF7A3
:1021B00039FF0028ACD10120FFF734FFA7E7706892
:1021C00070BD094EDEE7022386F80C34FFF72AFFC4
:1021D00000289ED199E70020FFF724FF97E700BF72
:1021E00018000020BC2700209C23002000C00440D1
:1021F0000080084010B501F0CFFD074B074A0849A1
:102200000124DC6000231370537093704B72BDE89F
:102210001040536001F0C4BD008008409C230020A2
:10222000BC470020024B002083F80801704700BF24
:10223000C8470020F0B5274C04F1140E0FCC8FB026
:1022400001AD0FC523682B60BEE80F000DF1180C1F
:10225000ACE80F009EE80F0001278CE80F0039461C
:102260003A2000F081FC3946582000F07DFC042221
:1022700006AB00261146059302203B468DF81D70E3
:102280008DF8126002F046FA33460422062102203D
:1022900002F040FA02223B461046052102F03AFACB
:1022A000334607210220042202F034FA0A4B0B4C79
:1022B0000B480C49C3F81C451C22C3F81405C3F88D
:1022C00018150948C3F8042501A901F05DFF0FB0F6
:1022D000F0BD00BF5897000800C003400200060090
:1022E000020005000200070000400A402DE9F0410D
:1022F000DFF86C8098F8083103B1FEE7154A164FF5
:102300001021C2F8A010012304469F21124888F82A
:10231000083101F09FFE08F5867508F20F1615F8D2
:10232000011B384601F096FEB542F8D10A4EE51C75
:10233000FF21304601F08EFE04F8010BAC42F7D1CC
:10234000064A10210023C2F8A01088F80831BDE821
:10235000F08100BF00E0034000400A4000D003408D
:10236000C84700202DE9F041104D95F8087107B1DC
:10237000FEE70F4EDFF840800E4810240123C6F818
:10238000A040662185F80831C8F8A04001F062FE3F
:10239000C6F8A0400748C8F8A040992101F05AFEAD
:1023A000C6F8A04085F80871BDE8F081C847002054
:1023B00000D0034000400A4000E003402DE9F04314
:1023C000254D95F8086189B006B1FEE7234A244CF3
:1023D00007911021C2F8A01007464FEA00294FF0DC
:1023E00001080221204685F8088101F033FEC9F377
:1023F0000741204601F02EFEF9B2204601F02AFEE8
:102400003146204601F026FE314605F58E70FEF776
:10241000DDFD1448079B03904FF480710191124A2F
:102420001249D5F81C01CDF8008004960296FEF7FB
:102430006DFE95F808310BB1FEE7E36BA36C1B064C
:10244000FBD4D5F81C01FEF709FE094B1022C3F896
:10245000A02009B0BDE8F083C847002000E0034099
:1024600000400A402522000844400A4001001200B2
:1024700000D003400000000030B5114C83B06D4621
:102480002146284602F0A4FB95E803000D4D85E89F
:1024900003002868FDF7CEFF07A3D3E90023FEF76A
:1024A0009FF804F500544FF40073C5E9020163621C
:1024B00003B030BDAFF3008000000000FD1FF63E0A
:1024C00000400049F048002010B5164C0FCC86B0F3
:1024D0000DF1040CACE80F002368CCF8003001A823
:1024E00001F05AFB0321802001F028F8002000F0C1
:1024F00065FB0D4BA3FB00308309013BB3F1807FEB
:102500000AD24FF0E02209485361F024002107234A
:1025100080F823409161136101214A2000F024FBDF
:1025200006B010BD8C970008D34D621000ED00E09E
:1025300070B5012186B03A2000F016FB0023184642
:102540000422092102F0E6F800230422114618466D
:1025500002F0E0F80123214E1A461946184602F00F
:10256000D9F801244FF0806333602246CDE900445E
:1025700021462046002302F041F8194A0025302365
:1025800082F82350214686F81A332E2000F0ECFA08
:10259000234628460A22032102F0BCF82346284697
:1025A0000A22052102F0B6F80E4A0F4B03204FF421
:1025B0004031C2F83805C2F83C154FF4A021C2F8EA
:1025C00040150FCB02AC84E80F00084B0493214662
:1025D0004FF0964002F0FEF806B070BD00E100E05A
:1025E00000ED00E000C00340A0970008DDFB0500FF
:1025F00010B5012188B03A20184C00F0B5FA01213D
:10260000572000F0B1FA0FCCEC46ACE80F0094E88C
:102610000F008CE80F00012318460422052102F068
:1026200079F8012318460222062102F073F80C4BB8
:102630000C480D4AC3F8FC041421C3F8F4240B48D9
:10264000C3F8E4144FF4E1326946029201F0A2FFAC
:10265000074B102283F80E2308B010BDB097000876
:1026600000C00340010005000100060000000A4010
:1026700000E100E070B51F4C86B001F08DFBD4E99D
:102680000532934284461DD0257FDDB9C2F30A028C
:10269000C3F30A0363619B1AC3F30A03A261C2F581
:1026A0000062934228BF134601262362267701F079
:1026B00077FB294604F12400FEF788FC024638B176
:1026C00006B070BD604606B0BDE8704001F068BB62
:1026D000A369256A0848039004F128010492029234
:1026E0000B44606A054A064900960195FEF70EFD07
:1026F00006B070BDF04800200527000844000A40DD
:102700000100110038B501F047FB0A4B9A69196ABC
:102710000A44C2F30A0200250446586A9A611D77EA
:10272000FEF79CFC204601F03BFBFFF7A3FF284689
:1027300038BD00BFF04800200FB470B582B006ABC2
:102740002A4C53F8042B01934FF4807104F62800AF
:1027500003F070F9C4F8280901F01EFBD4E9051252
:10276000C2F30A02C1F30A01531E5B1AC3F30A0340
:10277000C4E90512C4F82C3901F012FBD4F8282959
:10278000D4F82C399A4203D9237F002BE4D0FEE7FA
:1027900001F002FBD4F828194B1EC4F82839C1B146
:1027A000A569134A63696E1E02EB010EC6F30A06A1
:1027B000E1180133C3F30A0312F801CB81F828C0F2
:1027C0009D420FD07245F3D14FF0FF326361C4F8E0
:1027D000282901F0E5FAFFF74DFF02B0BDE870408F
:1027E00004B0704772453346E2D1EDE7F04800206F
:1027F00018510020044AD2F83019D2F830395B1A47
:102800008342FAD3704700BFF0480020034AD2F851
:1028100030390133C2F83039704700BFF04800202A
:1028200030B5154A154C07CA85B001AB83E80700DF
:1028300000254FF0E062194604F51460C4F8402901
:10284000C4F84459C4F84859C4F85C5902F068FA0D
:10285000012104F5146002F06FFA04F5146002F02F
:1028600075FA4FF09842536CDB02FCD5D4F860093E
:10287000536D05B030BD00BFD0970008F048002070
:10288000044B054A9A60D3F8882042F47002C3F8DA
:102890008820704700ED00E000000008014B186838
:1028A000704700BF60000020094B1B6F03F0070357
:1028B000022B09D0032B04D0012B00D0FEE70548E2
:1028C0007047054B58687047034B1868704700BF46
:1028D00000800040002D3101600000200D4B1B6F77
:1028E00003F00703022B12D0032B0DD0012B00D0D5
:1028F000FEE7094B094A0749086FC0F3033001306E
:10290000B3FBF0F090607047044A5368F3E7034A62
:102910001368F0E700800040002D310160000020C6
:102920000048704700B4C404014B5868704700BFAA
:10293000600000200020704700487047002D3101E2
:102940004FF094439868C0F304400C2808D8DFE89F
:1029500000F00B0707070707231B1D071F210900AE
:10296000002070470F4870474FF094439B6803F076
:102970004073B3F1807F13D0B3F1007F0ED00A4AC9
:10298000002B08BF1046704708487047084870473A
:10299000084870470848704708487047084870471B
:1029A00008487047005A620200093D000024F40004
:1029B000C0EA210180BA8C010048E801405DC600F0
:1029C00040420F0080841E004FF40040704700BF5B
:1029D0004FF47A70704700BF014BD868704700BF52
:1029E00060000020FEE700BF0B480C4A904203D075
:1029F0000B49121A02F052FB0A480B4A904203D0CC
:102A0000121A002102F058FBFFF73AFF02F022FBF6
:102A1000FEF76CF9FEE700BF000000204002002036
:102A2000649F0008400200208452002038B5204BEB
:102A3000D3F8203203F00703013B05460C46032B75
:102A40002FD8DFE803F00E1A0A02FFF7C5FF0923AB
:102A500005B1286004B1237038BDFFF7B5FF0A2324
:102A6000F6E7134BD3F8283103F00703013B032BA0
:102A70001AD8DFE803F00A0E1206FFF761FF0723FA
:102A8000E6E7FFF75DFF1123E2E7FFF707FF1123FA
:102A9000DEE7FFF749FF1123DAE7FFF74DFF1123C8
:102AA000D6E700200346D3E700201123D0E700BF7C
:102AB0000080004038B52B4BD3F8603203F0070399
:102AC000013B05460C46032B46D8DFE803F00E1BFE
:102AD0000A02FFF735FF072305B1286004B1237010
:102AE00038BDFFF729FF0223F6E71E4BD3F820314C
:102AF00003F00703013B052B31D8DFE803F0151184
:102B000025291511174BD3F8403103F00303022B8D
:102B100016D0032B10D0012B0AD000201023DBE7A6
:102B2000FFF702FF0F23D7E7FFF7B8FE0F23D3E726
:102B3000FFF74AFF1023CFE7FFF74AFF1023CBE749
:102B4000FFF74AFF1023C7E7FFF7F6FE0F23C3E79F
:102B5000FFF7F6FE0F23BFE700200346BCE7002087
:102B60000F23B9E7008000405FEA501C0CD0BCF195
:102B7000010F17D0BCF1020F0C4A0D4B1CBF4FF4D4
:102B800080524FF4005303E04FF480524FF400534F
:102B9000002918BF134600F01F00012202FA00F0BE
:102BA00018607047034A044BF2E700BF689000408A
:102BB00068A000406490004064A0004000B583B06D
:102BC0000023B0F5807F019300F21981B0F5807F7A
:102BD00000F21181DFE810F0B8010F010F010F01C1
:102BE0000F010F010F010F010F010F010F010F0165
:102BF0000F010F010F010F010F010F010F010F0155
:102C00000F010F010F010F010F010F010F010F0144
:102C10000F010F010F010F01B801DE010F01DE01ED
:102C2000E801E801E801E801E801DE012602AA0165
:102C300001013D01AA01DE01DE01DE010F010F01EC
:102C40000F010F010F010F010F010101DE01DE0174
:102C5000DE01D3011D02DE010F010F010F010F0183
:102C60000F010F010F010F010F010F010F010F01E4
:102C70004D02E801B801B801B8019601AA01AA0104
:102C800070010D027C01540154010F010F010F016D
:102C90000F010F010F010F010F010F010F010F01B4
:102CA0000F010F010F010F010F010F010F010F01A4
:102CB0000F010F010F010F010F010F010F010F0194
:102CC0000F010F010F010F010F010F010F010F0184
:102CD0000F010F010F010F014A020F010F010F0138
:102CE0000F010F010F010F010F010F010F010F0164
:102CF0000F010F010F010F010F010F010F010F0154
:102D00000F010F010F010F010F010F010F010F0143
:102D10000F010F010F010F010F010F010F010F0133
:102D20000F010F010F010F010F010F010F010F0123
:102D30000F010F010F010F010F010F010F010F0113
:102D40000F010F010F010F010F010F010F010F0103
:102D50000F010F010F010F010F010F010F010F01F3
:102D60000F010F010F010F010F010F010F010F01E3
:102D70000F010F010F010F010F010F010F010F01D3
:102D80000F010F010F010F010F010F010F010F01C3
:102D90000F010F010F010F010F010F010F010F01B3
:102DA0000F010F010F010F010F010F010F010F01A3
:102DB0000F010F010F010F010F010F010F010F0193
:102DC0000F010F010F010F010F010F010F010F0183
:102DD0000F010F010F010F01BE01B04BD3F84031BD
:102DE00003F00303022B00F0D280032B00F0AF802E
:102DF000012B00F0C180002003B05DF804FBB0F5AA
:102E0000E06F00F0068114D9B0F5286F00F0F18072
:102E10004AD9B0F5306F28D1A04AD2F8902202F0FA
:102E20000302012A00F0D880022A1FD1FFF788FD93
:102E3000E2E7B0F5607F00F025814FD9B0F5B06FC3
:102E400000F0F0803ED9B0F5C06FC6D0B0F5D06FBD
:102E50000CD1924BD3F8003203F00703013B032B54
:102E6000C9D8DFE803F0899474C203D2184603B0CE
:102E70005DF804FBB0F5386FAFD0B0F5406FF5D119
:102E8000864BD3F8283103F00703013B032BB2D85C
:102E900001A252F823F000BFE52F0008DF2F000841
:102EA000D92F00082D2E0008B0F5186F00F0E18032
:102EB00022D9B0F5206FD9D101A80021FFF7FAFD82
:102EC000019899E7B0F5806F6ED0B0F5A06FCDD1C5
:102ED00001A80021FFF7AAFD01988DE7B0F5007F5A
:102EE0001DD1FFF7E1FC6D4BD3F89030C3F30463C1
:102EF0000133B0FBF3F07FE7B0F5F06F3FD0B0F5F2
:102F0000106FB3D1654BD3F8083203F00703013BD0
:102F1000032B3FF670AFDFE803F02F3A1A6810D9A1
:102F2000B0F5207F36D0B0F5407F9FD1FFF7D6FCBB
:102F30005A4B1B6FC3F380230133B0FBF3F04008FF
:102F40005AE7B0F5C07F91D1FFF7C8FC54E7FFF70F
:102F50003FFD51E74FF0E023186910F00400F3D172
:102F60004E4BD3F8403103F00303022B0FD0032B59
:102F7000EDD0012B7FF440AFFFF726FD3CE7474B38
:102F8000D3F8603103F00303022B7FF42EAFFFF779
:102F900023FD31E7FFF7A2FC404B1B6FC3F38023F7
:102FA0000133B0FBF3F027E73C4BD3F8203103F0BB
:102FB0000703013B052B3FF61EAF01A252F823F099
:102FC000E52F0008DF2F0008D92F00082D2E00085C
:102FD000E52F0008DF2F0008FFF7AEFC0CE7FFF736
:102FE000A3FC09E7FFF75AFC06E7FFF777FC800A26
:102FF00002E72A4AD2F8703203F00303012B7FF470
:10300000FAAED2F8403103F00303022B7FF4EDAEA9
:10301000BDE7224BD3F8403203F00303022B7FF4C9
:10302000E4AEB4E71D4AD2F8803103F00303022B6B
:10303000D2D0032B3FF4FAAE012B7FF4DCAED2F8F2
:10304000203103F00703013B052B3FF6D4AE01A26C
:1030500052F823F0E52F0008DF2F0008D92F0008D1
:103060002D2E0008E52F0008DF2F0008FFF71CFCBD
:10307000C2E60A4BD3F8503203F00303022B7FF46D
:10308000B4AE84E7FFF710FC044BD3F88030C3F3F1
:1030900001130133B0FBF3F0AEE600BF0080004047
:1030A00010B582B00023B0F5807F8DF8073000F0B6
:1030B000E9811DD9B0F5086F00F0D78140F2048195
:1030C000B0F5286F00F0B48140F2EF80B0F5306FBA
:1030D00040F0D280CB4AD2F8902202F00302012ABB
:1030E00000F08381022A00F07C81002002B010BD34
:1030F000243882B25C2AF8D85C28F6D801A353F8A9
:1031000020F000BFA7330008A7330008A73300084A
:10311000A7330008A7330008EB3000086D33000820
:10312000EB300008CB33000839330008EB300008DF
:10313000EB300008EB300008EB300008EB30000803
:10314000EB300008EB300008EB300008EB300008F3
:10315000EB300008EB300008CB330008EB30000800
:10316000EB300008EB300008DF320008F3330008D2
:10317000EB300008EB300008EB300008EB300008C3
:10318000EB300008EB300008EB300008EB300008B3
:10319000EB300008EB300008EB300008EB300008A3
:1031A000EB30000859340008A7330008EB30000862
:1031B000EB300008EB30000807330008EB30000864
:1031C000EB300008B93200083134000849340008F7
:1031D0008D3200088D320008EB300008EB3000081B
:1031E000EB300008EB300008EB300008EB30000853
:1031F000EB300008EB300008EB300008EB30000843
:10320000EB300008EB300008EB300008EB30000832
:10321000EB300008EB300008EB300008EB30000822
:10322000EB300008EB300008EB300008EB30000812
:10323000EB300008EB300008EB300008EB30000802
:10324000EB300008EB300008EB300008EB300008F2
:10325000EB300008EB300008EB300008EB300008E2
:10326000EB300008EB300008EB300008EB300008D2
:10327000EB30000809340008FFF437AFB0F5386FC1
:1032800000F0A380B0F5406F7FF42FAF5D4BD3F813
:10329000283103F00703013B032B3FF626AFDFE89D
:1032A00013F01C010801A400A000B0F5186F00F095
:1032B000D380B0F5206F22D100200DF10701FFF778
:1032C000F9FB9DF8070011E7B0F5C06F7DD047D935
:1032D000B0F5E06F00F08D80B0F5F06F28D1494B6C
:1032E000D3F8603103F00303022B75D0032B68D0B1
:1032F000012B7FF4FAAEFFF767FB0A20F6E6B0F584
:10330000106F7FF4F2AE3F4BD3F8083203F007039F
:10331000013B032B3FF6E9AE01A252F823F000BFB8
:10332000F7320008D9330008C3330008E33400083B
:10333000B0F5D06F7FF4D9AE324BD3F8003203F042
:103340000703013B032B3FF6D0AE01A252F823F056
:10335000F7320008D9330008C3330008E33400080B
:10336000B0F5A06F70D0B0F5B06F18D1254BD3F881
:10337000804104F00304022C37D0032C31D0012CFF
:103380007FF4B3AED3F8203103F00703013B052BE4
:1033900000F2CF80DFE803F0B5B1B9BDB5B1B0F54B
:1033A000806F7FF4A2AE174BD3F8203103F00703F0
:1033B000013B052B3FF699AEDFE803F08F7B171337
:1033C000979BFFF705FB0B2090E60E4BD3F840319F
:1033D00003F00303022B89D1FFF7FEFA092002B0A4
:1033E00010BDFFF7ADFA072080E6FFF7A5FA02202F
:1033F0007CE6044BD3F8403203F00303022B7FF446
:1034000075AFE9E7008000404B4B1B6F03F00703EB
:10341000013B032B3FF669AE01A252F823F000BF37
:10342000EF330008DF340008B7340008D734000851
:10343000414AD2F8703203F00303012B3DD0022B36
:1034400014BF0020142051E600200DF10701FFF702
:10345000EDFA9DF8070049E6374BD3F8503203F0F8
:103460000303022B7FF442AFB6E7334BD3F80031AE
:1034700003F00303022BAFD0032B2AD0012B18D06B
:10348000012033E64FF0E023186910F004000CD15E
:10349000294BD3F8403103F00303022B9CD0032BBC
:1034A0008FD0012B7FF422AE25E7FFF717FA0C200F
:1034B0001CE6FFF739FA032018E6D2F8403103F092
:1034C0000303022B31D0032B2BD0012B25D010204E
:1034D0000CE6FFF72FFA082008E6FFF7DFF90520D2
:1034E00004E6FFF7FBF90E2000E6FFF7D7F9062008
:1034F000FCE5FFF719FA0420F8E5FFF715FA0F20AD
:10350000F4E5FFF7CBF90F20F0E5FFF715FA0F20F0
:10351000ECE5FFF715FA0F20E8E5FFF755FA102064
:10352000E4E5FFF755FA1020E0E5FFF755FA102023
:10353000DCE50F20DAE500BF00800040B0F5807FB9
:10354000F8B50C4600F015821FD9B0F5086F00F0F1
:10355000338240F21881B0F5286F00F0E68140F226
:10356000F680B0F5306F40F0D380022900F052822F
:10357000072914BF00210221D74AD2F8903223F044
:1035800003030B43C2F89032F8BD243883B25C2B9E
:10359000FAD85C28F8D801A353F820F06138000865
:1035A0006138000861380008613800086138000897
:1035B0008935000831380008893500088938000845
:1035C000F937000889350008893500088935000871
:1035D00089350008893500088935000889350008D3
:1035E00089350008893500088935000889350008C3
:1035F00089380008893500088935000889350008B0
:103600009D370008ED380008893500088935000825
:103610008935000889350008893500088935000892
:103620008935000889350008893500088935000882
:10363000893500088935000889350008B338000845
:103640006138000889350008893500088935000887
:10365000CB37000889350008893500085D37000838
:103660002B3900084939000825370008253700089C
:103670008935000889350008893500088935000832
:103680008935000889350008893500088935000822
:103690008935000889350008893500088935000812
:1036A0008935000889350008893500088935000802
:1036B00089350008893500088935000889350008F2
:1036C00089350008893500088935000889350008E2
:1036D00089350008893500088935000889350008D2
:1036E00089350008893500088935000889350008C2
:1036F00089350008893500088935000889350008B2
:103700008935000889350008893500081339000813
:10371000FFF43AAFB0F5386F00F0B680B0F5406F07
:103720007FF432AF023CE4B2052C98BF6B4B6A4A7F
:1037300098BF03EB8404D2F8283194BFD4F8001169
:10374000002123F007030B43C2F82831F8BDB0F580
:10375000186F00F0AE80B0F5206F32D1023CE4B2B9
:103760000E2C98BF5D4B5C4A98BF03EB8404D2F8E3
:10377000603294BFD4F81811002123F007030B43E3
:10378000C2F86032F8BDB0F5C06F7DD049D9B0F550
:10379000E06F00F0AB80B0F5F06F29D1093CE4B2E6
:1037A000022C98BF4E4B4C4A98BF53F82410D2F8C5
:1037B000603188BF002123F003030B43C2F860315E
:1037C000F8BDB0F5106F7FF4DFAE093CE4B2052C14
:1037D00098BF444B404A98BF53F82410D2F808329F
:1037E00088BF002123F007030B43C2F80832F8BD5D
:1037F000B0F5D06F7FF4C8AE093CE4B2052C98BF99
:10380000364B354A98BF03EB8404D2F8003294BF9C
:10381000D4F8A010002123F007030B43C2F80032B4
:10382000F8BDB0F5A06F00F08F80B0F5B06F13D188
:10383000023CE4B20D2C98BF284B274A98BF03EBFB
:103840008404D2F8803194BF616C002123F003031B
:103850000B43C2F88031F8BDB0F5806F7FF494AEB1
:10386000023CE4B2052C98BF1C4B1B4A98BF03EBEB
:103870008404D2F8203194BFE16F002123F00703C4
:103880000B43C2F82031F8BD093CE4B2022C98BFCA
:10389000124B114A98BF03EB8404D2F8403194BF15
:1038A000D4F89410002123F003030B43C2F84031F5
:1038B000F8BD093CE4B2022C98BF0B4B064A98BFF6
:1038C00053F82410D2F8503288BF002123F00303AC
:1038D0000B43C2F85032F8BD00800040DC9700086E
:1038E000709800087C98000870980008093CE4B2C1
:1038F000022C98BF9D4B9E4A98BF53F82410D2F8D3
:10390000403288BF002123F003030B43C2F840324A
:10391000F8BD8B1E062B7FD8DFE813F00101F20003
:103920007E0004017E007E00EF00102C70D0142C6D
:1039300014BF002102218E4AD2F8703223F0030313
:103940000B43C2F87032F8BD073CE4B20A2C98BFB2
:10395000884B874A98BF03EB8404D2F8203294BF87
:10396000D4F8D410002123F007030B43C2F820320F
:10397000F8BD0C2935D019D910297FF405AE7E4B3E
:103980007B487E4A406E4FF480315966536A43F05B
:1039900001035362C20358BF794B4FF0E02258BF76
:1039A0005966136923F004031361F8BDA1F10904FA
:1039B000022C3FF6E9ADE2E7CC1EE4B2062C98BF3C
:1039C0006C4B6B4A98BF03EB8404D2F8003194BF70
:1039D000D4F8B810002123F003030B43C2F80031E0
:1039E000F8BD654B6248654A406E4FF480315966B8
:1039F000536A23F001035362C30358BF604B4FF077
:103A0000E02258BF5966136943F004031361F8BDFF
:103A1000012190E70121AFE5002635460121022072
:103A200000F044FAFEF77CFF534A514B4FF48031CB
:103A300091661B6F5349C3F3033303FB0000524BE2
:103A400041F67137DA69DF635B68884223F440131B
:103A50004D4988BF43F4801302F480324B600AB1B1
:103A60000023CB63424A136F43F480631367136FE1
:103A700023F007032B431367FEF730FF4FF040227C
:103A8000D2F8845015F01005FAD1D2F88430C3F37F
:103A90008113C3F10203002B47DD3749344A3A4B07
:103AA0004FF480308866126FD96941F67132DA635B
:103AB0005A68C90322F440125A6000D5DD6301211F
:103AC000002000F07BF94FF4C070FFF777F82F4B20
:103AD000274A984288BF4FF48065136F23F48063B0
:103AE0002B431367002E7FF44FAD032C7FF44CADB6
:103AF000274B4FF480329A62F8BD002604258DE7EB
:103B00001D4A244B4FF4801151669E6A03F5805381
:103B10004FF48032C6F300669A6203257EE70026E2
:103B200001257BE70026022578E7134A104B4FF466
:103B3000803191661B6F1349C3F3033303FB00000D
:103B4000114B41F67137DA69DF635B68884223F411
:103B500040130D4988BF43F4801302F480324B6058
:103B6000002AACD00023CB63A9E700BF70980008FF
:103B700000800040DC9700080090004000C0074033
:103B800000A00040005A62020000034080F0FA02E8
:103B90000060004A0040004A70B505468020FFF7EB
:103BA0007FFA032866D0544B544E554A4FF4801187
:103BB000596645F60E01C6F88010524B4FF0A061D1
:103BC00091624FF480329A62B46D14F48034FBD168
:103BD0006B782A781B0543EA0263AA791343EA78D3
:103BE00043EA02432A7943EA02336A7943EA8213B9
:103BF0003361B369EA7A03F000431343EA7943EA95
:103C000082632A7A43EA02636A7A43EA0243AA7A1F
:103C100043EA0223B36100F0BFF8B36B23F44063BF
:103C200043F40063B36300F0BBF8336A6A7B23F0AC
:103C30000F0302B3297B43EA8103134343F00803D4
:103C4000022A33624AD02B7CAA7B2C491B06886A45
:103C500043EA42132C4A0240A87C13436A7C43EA9D
:103C6000C00343EA02438B62EB7C1BB1234B274A20
:103C7000C3F8802070BD297BAA7CA87B43EA81031E
:103C80003362B16AD300204A43EA40130A40E97B19
:103C9000134343EA011343F48033184A1C49B362C7
:103CA000936D31EA0303FBD115494FF080708862B0
:103CB0001369AC7823F4700343EA045313612B7C3B
:103CC0004FF000428A610BB90E4B98626B7C002B5F
:103CD000CAD10C4B4FF480329A62C5E73461B461AB
:103CE00000F05AF8736B23F47F4343F40853736373
:103CF00000F056F8A7E700BF009000400040004ADF
:103D00000050004A0060004AC7FFFEFEF1A7FFFF17
:103D100003000100002914DD1B4A1C4B1C494FF411
:103D20008030906641F67132096FD969DA635A685A
:103D300022F440125A60CA0302D50022DA637047A7
:103D40007047114B124A4FF4803110B49966116FCD
:103D500003F51C3341F67134DA69DC63C1F30331D6
:103D60005B6801FB00000B4923F4401388420749BC
:103D700088BF43F4801302F480324B600AB1002301
:103D8000CB635DF8044B7047009000400000034097
:103D900000800040005A6202EFF3108072B6704754
:103DA00000B962B6704700BFEFF3108072B670477B
:103DB00000B962B6704700BF704700BF70B50028F9
:103DC0006AD0374B1B784FF0402413B1354B9842E3
:103DD00031D9D4F88430DD06FBD4D4F88430C3F371
:103DE0008113022B57D0FEF75FFD0546FFF7D4FF86
:103DF0002D4B4FF000725A6606460220FFF7DCFF9B
:103E00004FF400632367636E98010BD44FF0402397
:103E100004E0D3F884205A6E910103D4D3F88420AF
:103E20009206F6D53046FFF7BBFF28460021BDE8D5
:103E30007040FFF76FBFD4F88430D806FBD4D4F8B5
:103E40008430C3F38113012B25D0FEF72DFD012112
:103E5000FFF760FFFFF7A0FF134B4FF000725A66A9
:103E600005460120FFF7A8FF4FF480632367636EC8
:103E700099010BD44FF0402304E0D3F884205A6E0C
:103E8000920103D4D3F884209606F6D52846BDE8DF
:103E90007040FFF785BF70BDFEF706FD91E700BFDC
:103EA00054520020005A620200600040F8B50546F6
:103EB0004FF04024D4F88430DE06FBD4D4F88430AC
:103EC000C3F381139D4227D0FEF7EEFC012D074678
:103ED00029D0FFF761FF204B4FF000725A6606466B
:103EE0002846FFF769FF6A1E4FF4806393402367FB
:103EF000636E98010BD44FF0402304E0D3F8842084
:103F00005A6E910103D4D3F884209206F6D5304638
:103F1000FFF746FF022D00D0F8BD38460021BDE86E
:103F2000F840FFF7F7BE2946FFF7F4FEFFF734FF2E
:103F3000094B4FF000725A6606462846FFF73CFFD1
:103F40004FF480632367636E9C01D4D53046BDE88F
:103F5000F840FFF725BF00BF006000404368DB0763
:103F600010B424D400F5005200F5805104230B61F5
:103F7000202413610B6113610B6113610B611361E9
:103F800041F2020100230461C3604FF4A024836066
:103F90004161134983614462C3615DF8044B03626C
:103FA0008362C36243630365D164036370478368BC
:103FB000DC0710D40A238363436D13F0500FFBD149
:103FC000836C9A07FCD100F50052012353604368CB
:103FD0009B07FCD4C8E70369D907F4D5EAE700BF1B
:103FE000FF3F0D03B1B94368D9072ED58368DA07BF
:103FF0002CD40A238363436D13F0500FFBD1836CE1
:104000009907FCD100F5005301225A6043689A07D2
:10401000FCD4704700F5805301225A6001F00F0272
:10402000436DC3F30B03002BFAD18263436D13F08E
:10403000780FFBD101F001024B0748BF42F00202AA
:10404000836C03F003039342FAD170470369DB07E3
:10405000D8D5CEE7836C5A06FCD54164836C1B0629
:10406000FCD5C06B80B2704738B50446154669B9B7
:10407000414B984275D0414B984278D04048844299
:104080000CBF58200020FEF799FD0146A368DB070E
:104090003AD5B1FBF5F16268D50701F1FF3353D58D
:1040A000626D12F0280FFBD1A26C900757D1A26C61
:1040B000D2075ED4A26C12F0020F0CBF00210621C1
:1040C0006268D50715D5A268D00702D52269D20744
:1040D00008D50A22A263626D12F0500FFBD1A26CC8
:1040E0009507FCD104F500520120506062689007EA
:1040F000FCD4226922F07F4242EA03632361204616
:10410000BDE83840FFF76EBF6368A36803F0E003C3
:10411000402B28D012D9602B1DD0802B0DD1194BEC
:104120004801B0FBF5F1203903EAC101636DDA07FC
:10413000FCD42163636DDB07FCD438BD6BB1202B4D
:1041400008BFED00EBD038BD216921F07F4141EA85
:104150000363236138BDAD00E1E72D01DFE70521F1
:10416000AEE756208FE705EB45056D00D7E75720F2
:1041700089E70921A4E700BF0000014B00000A40C5
:1041800000400A40F8FF7F00436870B50E6904469E
:104190000D46002B40F0A5802046FFF7DFFE226988
:1041A0006B7BA97B22F087020B43134343F0800310
:1041B0002361002E00F0B2802B6922691878D97B28
:1041C00022F0F8020243187F42EAC012187942EA4C
:1041D0004012587A42EA001242EA81122261E068F3
:1041E000D3E9052620F0F04020F47020324302434A
:1041F000187B42EA8022587B42EAC032E260A26821
:10420000EE7B22F00302324342F00102A2605A88A0
:10421000A66802F4C0423243A260A2685E7942EA14
:104220008622A2609A79DE791201360206F4E066EF
:1042300002F070023243666A26F4772C2CF4EE6C9E
:1042400042EA0C0293F808C04FEA0C3C0CF4E04C34
:1042500042EA0C0293F81DC04FEA0C4C0CF4702C8F
:1042600042EA0C02626262692E7B22F00F02324344
:1042700062615A89A26100283FD03E4A944269D0C7
:104280003D4A944259D002F5804294426FD19A7BC4
:104290003A4802F00F02C267002939D1D5E901126C
:1042A0002046FFF7E1FE04F5805301225A60636D5A
:1042B000C3F30B03002BFAD10523A363636D13F043
:1042C000780FFBD1A36C03F00303032BFAD12B78F7
:1042D000626DA363636DA36CDB4313F4405FFAD19B
:1042E00070BD636DC3F30B03002B3FF455AF636DDB
:1042F000C3F30B03002BF4D14EE70029CED01D4AA7
:1043000094422ED01C4A94421ED01D4A9442C5D1DC
:104310001B7C1A4A03F00F039367BFE7A368EA7B8D
:1043200023F00303134343F00103A36063692A7B73
:1043300023F00F0313436361B0E79A7B0F4802F049
:104340000F0202670029A9D01B7C0C4A03F00F035F
:10435000D366A3E79A7B094802F00F024266002960
:104360009CD01B7C054A03F00F03136696E70029D7
:10437000CBD193E70000014B00000A4000900340BE
:1043800000400A40F8B5436804460D461646002B27
:1043900040F0AC802046FFF7E1FDE9896B7B626964
:1043A0000B43298A22F44C5222F00F020B43134391
:1043B0006361A2682B7B297E22F0804222F0E20218
:1043C0000B4313436A691343AA68A3601AB9A3682D
:1043D00043F00043A360EB69002B00F0C080A168AC
:1043E000187A93F802C041EA8051A160A168987AD6
:1043F00041EA4041A1609988A06801F4C0410143AD
:10440000A160A168587841EA8001A160A168587B49
:1044100041EAC001A160A168987B41EA0011A16056
:10442000A068D97940EA8C20A0609879490241EAD5
:104430008021E160197801F0FD00012874D0023973
:1044400001294E495ED98C4200F08E804C498C4245
:1044500000F0918001F580418C420CBF02214FF0A9
:10446000FF3148484901084402214160587A04F567
:104470008051886218B1E06840F40060E060D87A4A
:1044800078B1E06840F40040E0603C481B7B844227
:1044900003F00F033C4869D03C4F0367BC4208BFA0
:1044A000C3672EB196F82030002B46D001230B6253
:1044B00001234B60636DC3F30B03002BFAD105237B
:1044C000A363636D13F0780FFBD1A36C03F00303B8
:1044D000032BFAD1002A3DD129782046FFF782FD2F
:1044E000A36CDB4313F4405FFAD1F8BD636DC3F3F3
:1044F0000B03002B3FF44EAF636DC3F30B03002B94
:10450000F4D147E78C4234D01D498C422AD001F5C2
:1045100080418C420CBF02214FF0FF311C48490101
:10452000084402214160A1E7E068023940F004003C
:104530000129E060114986D8E4E796F82230E06965
:1045400096F8216020F009003343034343F0010350
:10455000CB61ADE769682046FFF786FDBCE704F54F
:1045600080519EE70121D9E700217AE7436603677E
:1045700097E70021D2E7012173E700BF0000014B5C
:1045800000000A40C0E403400090034000400A409D
:10459000C0D403400022FFF7F5BE00BF164A0B68E7
:1045A000934230B425D093FAA3F3102423FA04F2F3
:1045B0000B7BCBB100F5805301255D600B7A91F840
:1045C0000BC09B0243EA4C3391F809C043EA4C23E9
:1045D00091F80AC043EA0C232343836004B142618B
:1045E0004B68036130BC704700F5005301255D60E6
:1045F000E4E700221446DBE7B71DC1042DE9F04FC4
:1046000083B0072A9DF830A09DF834B016460C46BA
:104610001F4645D8DFF8F89093004FF0030808FADA
:1046200003F800FA03F50193FFF7B6FBD9F800246D
:10463000554005EA08055540C9F80054FFF7B0FB9E
:10464000019B04F003049C40FFF7A6FBD9F8082463
:1046500084EA020303EA080888EA0202C9F8082487
:10466000FFF79EFB244A254B25482649002F08BF0B
:104670001346012202FA06F61E60234A234BBAF1C2
:10468000000F08BF1A46A3F57F63BBF1000F08BFF8
:1046900003461660C1F820641E6003B0BDE8F08FC9
:1046A000A2F108084FEA880800FA08F5FFF774FB42
:1046B000174BD3F804244FF00309554009FA08F9C1
:1046C00005EA09055540C3F80454FFF769FBFFF7F5
:1046D00063FB0F4B04F00304D3F80C2404FA08F82E
:1046E00088EA020808EA090989EA0202C3F80C24E8
:1046F000FFF756FBB6E700BF10E4034010D40340B9
:1047000024E4034000E0034014D4034014E40340D5
:1047100000C003402DE9F84F04460D469846164662
:104720004AB101228A40002B4CD1274B04EB4401B3
:1047300009010B441A60670007EB0409072D4FEAD3
:10474000091923D8DFF888A009F10409FFF724FB31
:1047500059F80A104FEA850C06FA0CF20F234A406A
:1047600003FA0CF313404B4049F80A30FFF718FBEB
:1047700056B9B8F1000F23D1134B3C442401012159
:10478000234401FA05F51D60BDE8F88FDFF840A06D
:1047900009F10C09A5F108034FEA830BFFF7FCFAB6
:1047A00059F80A1006FA0BF383EA01020F2303FA01
:1047B0000BF313404B4049F80A30FFF7F1FAD7E703
:1047C000024BDAE7014BB1E740E0034040D0034041
:1047D00030C003402DE9F0414A78044600F500530B
:1047E0000D46002031492064D96304F108037AB9E9
:1047F00003F5805302221A60AE6886B92B78043420
:10480000002B42D004F5805401232360BDE8F081E1
:1048100003F5005302221A60AE68002EEED0A368A2
:1048200095F80C806F6823F44073A360FFF7B4FA27
:10483000A36808F0030883EA082202F440725A4091
:10484000A260FFF7ADFA2FB9B4F1964F28D0184BFC
:104850009C4220D0A368174B13F8082006FB02F2F5
:10486000002ACBD0A1686FEAC606B3183B44B3FB5D
:10487000F2F38A0703F1FF3302D5012B38BF01237E
:10488000A3612B780434002BBCD104F50054012320
:104890002360BDE8F0812F20FEF790F90746D9E7A5
:1048A0002E20FEF78BF90746D4E700BFFFFF1F005D
:1048B00000800640C09A0008B0F1964F16D09C4B7D
:1048C000984240F005819B4BC26B12F4C06FF0B56B
:1048D0009C6840F0F2801978082900F22081DFE816
:1048E00001F01A952B3E5B796AAE0700924BEBE71D
:1048F000D2051ED500F500524FF48071D163092115
:1049000093F9012019700021012A016401D1597025
:104910000A461046F0BD61882288CD0640F1BB8072
:10492000120A02F0060242F0F002012119704263FD
:10493000C16001221046F0BD110600F1D780520679
:10494000F7D500F500524021D163628897073BD527
:1049500003221A70C26B12F4C06F40F0AE806188FF
:104960002288CE0643BF120A02F0060242F0F0028D
:1049700002F0FE024D0709D5197904EBC10442F09B
:1049800001022189012904BF0821C16004240121F9
:104990001C70C1604263CCE7110600F1A780570686
:1049A000C7D500F500524021D163628856070BD568
:1049B00007221A70BDE7160600F198805506B8D593
:1049C00000F500524021D16305221A70C26B12F427
:1049D000C06F72D14FF0000C1A79B3F802E0511C8D
:1049E00004EBC202C9B21589754500F289801971BC
:1049F0006288A3F802C05507AAD4D70701D40129B9
:104A000057D9082102221970C26092E711066DD4AD
:104A100057068ED500F500524021D1636288D60634
:104A200078D49507D0D51A79072104EBC204197000
:104A30002389012B7FF47DAF0823C36079E79106BA
:104A40007FF577AF1A79476A456904EBC2043B4AA0
:104A500021892A40B2F5003F24D000F500555A883C
:104A600020269142EE63CCD96468551C5D80A75422
:104A70005A889142C5D904240129C46004D9013956
:104A80008A4201D10822C2601A78092A7FF451AF04
:104A900093F9012037E702F0FE028C0748BF42F08D
:104AA000010242E700F50055426A4FF40052EA6302
:104AB000D5E7C26B12F4C06F8ED012F400710BD028
:104AC0004FF6095200211A806FF00202016420E7BC
:104AD0006FF003021046704756057FF510AF4FF692
:104AE00009621A806FF00102016412E700F50052BA
:104AF0008024D4634FF6087102221980C26018E73F
:104B000052680EF10101598012F80E10416306221D
:104B10001A700EE702221A702378436309E74FF6F2
:104B2000093200211A806FF004020164F1E600BF2F
:104B300000800640645200205852002020000200ED
:104B4000B0F1964F36D01E4B984235D11D4B0269BD
:104B5000D20748BF202210B448BFC2604A889407D9
:104B600001D50C890CB354071CD400221A714FF4E0
:104B70008074C0221C609960C2604369DA0503D565
:104B8000436A4369DB05FBD400F500530E4A5DF828
:104B9000044B2021D963DA63036C43F4FC630364A0
:104BA000FFF78ABE0A8A002ADFD16FF003005DF8A2
:104BB000044B7047054BCAE76FF00300704700BF16
:104BC0000080064064520020FFFF1F005852002062
:104BD0000B6FC96F03F0070CBCF1020F10B40BD9B7
:104BE000ACF10303022B13D821F0FF04CAB2046016
:104BF00002715DF8044B704721F07F440B0248BFFF
:104C000044F07F440A0E046002715DF8044B704763
:104C10000022046002715DF8044B704738B5012131
:104C200004462020FDF7A0FF01212120FDF79CFF75
:104C3000114B01225A60227812069A606178A2789C
:104C400042EA01429A6100214FF00042FF259D6235
:104C500003F50050996319645A65084A4FF48001BE
:104C60004FF0FF330365C2F88011E3781B01DBB21C
:104C700082F81633116038BD0000044000E100E006
:104C8000F8B5C3B201259D40CB7A0F68214EDFF8FD
:104C900088E00C46897A94F80CC01B0543EA01436E
:104CA000810001F1402100EB400006EB001001F50E
:104CB000802143EA4C5322F0030294F80DC0CEF851
:104CC00050504F60C0F860C0C3650267FFF76CF8D2
:104CD000736D2B437365237A13B1336C2B433364A9
:104CE000637A1BB10B4A936B2B4393632279A379AD
:104CF000084943EA0243084A93616679E379074C1D
:104D000043EA0643A36155638D64BDE8F840FFF7AD
:104D10004FB800BF000004400020044000100440D1
:104D200083680BB905E05B685A68012AFBD15960BA
:104D300070478160704700BFC369032B04D800EB44
:104D400083020133D160C361704700BFC169042988
:104D500020D810B44FF09842136CDB02FCD50B1D29
:104D60009B001365D0E900431460136083681360EF
:104D700069B1C3681360012909D00369136002296E
:104D800005D043691360042904BF836913605DF88B
:104D9000044B7047704700BF10B402E003695A0625
:104DA00002D5036BDC07F9D400F5005301221A6326
:104DB000036B9B07FCD40B794C884A7A1B0243EAAD
:104DC000844313434A780AB143F040038A7A0AB114
:104DD00043F08003CA7A0AB143F020030A7B0AB188
:104DE00043F010034A7B0AB143F008038A790AB101
:104DF00043F48033436000F580520B780124146340
:104E000063B90222C2604362CC790B7A4A7943EAE1
:104E10008403AAB95DF8044B8360704700234362A2
:104E2000CC790B7A4A7943EA84032AB98360012357
:104E30005DF8044BC360704743F010038360F6E7EE
:104E400043F01003E6E700BF30B502E003695B06FC
:104E500002D5036BDC07F9D400F5005301241C6371
:104E6000036B13F00203FBD1D47992F80BE092F8B4
:104E700006C0002C547A4CEACE4C14BF4FF4801E6E
:104E80004FF0000E002C4CEA0E0C18BF10234CEA19
:104E9000030300EB411CCCF86030137A3BB3DCF821
:104EA0006030147B43EA4443CCF86030274B95785C
:104EB000984239D003F58043984243D003F58043AC
:104EC00098423DD003F5804398423DD003F580439E
:104ED00098420CBF04234FF0FF33012C03EB430334
:104EE00027D001EB43018900194B5D5003E0DCF84A
:104EF0006030CCF8603000F58050012303635378B4
:104F00001078D1781B0643EA8063107943EA0133B5
:104F10005179927A43EA802343EA01230AB143F0AC
:104F20000403CCF8643030BD0023012C03EB4303B1
:104F3000D7D101EB43039B0005492D02CD50DAE7A1
:104F40000223CAE70123C8E70323C6E70080044021
:104F50005481034070B5044600F580500122426040
:104F600040F6AA62626100230D4641F20502324911
:104F7000A360E365E26004F500528C422F4E23618A
:104F8000E361E3649664A36504BF2365636501235D
:104F9000A97B53602A8A4360A36842F0010200297A
:104FA00043EA020314BF4FF4806100210B432A7DC2
:104FB000A360A3680AB143F00053AA7CA36032B196
:104FC0001D4B9C4232D0E36D43F08003E3652B7BA5
:104FD0006868AE6843F48053E36010B36B7B0138BC
:104FE0007600B0FBF6F00002E0610BB110236361C4
:104FF0006B7D1BB1A36843F48033A360AB7D1BB111
:10500000A36843F40043A360EB7D2A7E1B071205CF
:1050100003F0E04302F4E0021343A3652B786361DD
:1050200070BD4FF42070FDF7C9FDD7E7A3F510332D
:10503000EA7CC3F8D421C6E700C00540FFFF0100A9
:1050400083695A06FCD5C16383699B06FCD5406A17
:10505000C0B2704770B50D4D0D4C641BA4100026F6
:10506000A64209D10B4D0C4C04F06CFF641BA4103C
:105070000026A64205D170BD55F8043B984701367D
:10508000EEE755F8043B98470136F2E75C9F0008CD
:105090005C9F00085C9F0008609F00080A449142E2
:1050A00000F1FF3300D1704710B511F8014B03F840
:1050B000014F9142F9D110BD02440346934200D101
:1050C000704703F8011BF9E72DE9FF4755EC104B3A
:1050D000002D0E4619462B46BBBF05F100431D4669
:1050E00000232D230B700D9BDDF830A0914623F09B
:1050F0002008BCBF22461446B8F1460F05D0B8F1CF
:10510000450F00D10136022100E0032103AB0193DA
:1051100002AB009345EC104B5346324600F024FDA1
:10512000B8F1470F074602D119F0010F22D0B8F1AC
:10513000460F07EB060910D13B78302B0AD100222D
:10514000002320462946FBF7B3FC18B9C6F1010637
:10515000CAF80060DAF800309944002200232046A3
:105160002946FBF7A5FC08B1CDF80C903022039B33
:105170004B4507D3039B0E9ADB1B3846136004B0E4
:10518000BDE8F087591C03911A70F0E7F7B50346A4
:105190000029B8BF494203F8022BB4BF2D222B22AD
:1051A000092942702ADD0DF10704A4460A27A64604
:1051B0000A4691FBF7F607FB16153035632A04F112
:1051C000FF340EF8015C3146F1DC3031AEF10205FE
:1051D00004F8011C441C294661450AD30DF109025B
:1051E000A2EB0E02654588BF00221344181A03B0D3
:1051F000F0BD11F8012B04F8012FEDE73023303119
:105200008370C170031DF1E72DE9F04F2DED028B86
:105210008DB00C46DDF8608016461F46054601F04D
:1052200091FAD0F800A05046FBF77EF900230A93CC
:1052300023680593D8F8003094F818B0073323F0AA
:10524000070303F10802C8F80020D3E90023C4E9EA
:105250001223D4E9128929F000430793CDF818806E
:1052600008EE100A9F4BDDE906014FF0FF32FBF715
:1052700051FC88BBDDE906019A4B4FF0FF32FBF78A
:105280002BFC48BB0022002340464946FBF71AFC92
:1052900010B12D2384F84330934B9448BBF1470F52
:1052A00094BF9846804603232361059B23F00402A4
:1052B00022604FF00009009733460BAA214628468A
:1052C00000F0D8F9013040F090804FF0FF300DB081
:1052D000BDEC028BBDE8F08F42464B464046494646
:1052E000FBF718FC40B14B46002BBCBF2D2384F8C4
:1052F00043307F487F4BD1E763680BF0DF020692B3
:105300005A1C3FD106236360059B616843F48062A9
:10531000002303930AABCDE901B309AB49EC108B31
:10532000009322600DF123032846FFF7CDFE069B74
:105330000999472B804608D1C81C02DB6368994253
:1053400041DDABF1020B5FFA8BFBBBF1650F20D89F
:1053500001395A4604F150000991FFF717FF0A9AE4
:105360001318012A8146236102DC2268D20701D585
:10537000013323619DF82330002B9CD02D2384F82A
:10538000433098E7069A472ABED1002BBCD10123AF
:10539000B9E7BBF1660F18D1002963680BDD216105
:1053A00013B92268D00702D501330B442361A165EC
:1053B0004FF00009DEE713B92268D20701D50233A6
:1053C000F4E70123F2E74FF0670B0A9B994205DBF4
:1053D00023682161D807EAD54B1CE7E70029D4BF31
:1053E000C1F1020201221344E0E723685A0507D401
:1053F0002369424631462846B84701302CD164E73C
:10540000BBF1650F40F2E080D4E9120100220023D5
:10541000FBF74EFB002834D0374A0123314628469B
:10542000B84701303FF451AFDDE909239A4202DB6E
:105430002368D80710D518EE103A52463146284650
:10544000B84701303FF441AF4FF0000804F11A09AA
:105450000A9B013B434509DC23689B0700F105815A
:10546000E0680B9B9842B8BF184630E701234A46D4
:1054700031462846B84701303FF427AF08F101080C
:10548000E6E7099B002B39DC1B4A012331462846FD
:10549000B84701303FF419AFDDE90923134302D1C6
:1054A0002368D907D8D518EE103A52463146284617
:1054B000B84701303FF409AF4FF0000904F11A0A70
:1054C000099B5B424B4501DC0A9B92E70123524654
:1054D00031462846B84701303FF4F7AE09F10109DB
:1054E000EEE700BFFFFFEF7F889B00088C9B000862
:1054F000949B0008909B0008989B00080A9AA36D53
:105500009A42A8BF1A46002A914637DC4FF0000B9A
:1055100029EAE97904F11A02A36D0593A3EB0903C3
:105520005B4533DCDDE909239A423BDB2368DA077C
:1055300038D40A9B059A09999A1AA3EB0109914557
:10554000A8BF9146B9F1000F35DC4FF0000829EAF9
:10555000E97904F11A0ADDE909239B1AA3EB09038F
:1055600043457FF779AF0123524631462846B84775
:1055700001303FF4AAAE08F10108ECE713463146CA
:1055800042462846B8470130C0D19EE60123314645
:1055900028460592B84701303FF497AE059A0BF1C3
:1055A000010BB9E718EE103A524631462846B84783
:1055B0000130BED189E6059A4B4642443146284621
:1055C000B8470130C1D180E60A9A012A01DCDB0725
:1055D00038D50123424631462846B84701303FF4CA
:1055E00074AE18EE103A524631462846B84701309C
:1055F0003FF46BAED4E9120100220023FBF758FA06
:10560000D8B90A9B08F10102013B31462846B84748
:1056100001300ED159E60123524631462846B8479B
:1056200001303FF452AE08F101080A9B013B4345AB
:10563000F1DC4B4604F15002DCE64FF0000804F1C7
:105640001A0AF2E701234246DFE701234A463146C0
:105650002846B84701303FF438AE08F10108E36846
:105660000B995B1A4345F0DCFAE64FF0000804F1B1
:105670001909F4E72DE9F047164699468A680B693F
:10568000DDF820809342B8BF1346336091F8432081
:1056900007460C460AB1013333602368990642BFBE
:1056A000336802333360256815F0060506D104F12E
:1056B000190AE36832689B1AAB4226DC94F843204F
:1056C000131E226818BF012392062BD404F1430253
:1056D00049463846C04701301ED02368E568326825
:1056E00003F00603042B08BFAD1AA36822690CBFA0
:1056F00025EAE57500259342C4BF9B1AED180026E4
:105700001A34B5421AD1002008E001235246494616
:105710003846C047013003D14FF0FF30BDE8F08775
:105720000135C6E7E1185A1C302081F843002244B5
:1057300094F8451082F843100233C7E7012322464C
:1057400049463846C0470130E6D00136D9E7000067
:105750002DE9FF470F7E0C9D782F914680460C4621
:105760009A4601F1430207D8622F0AD8002F00F0B1
:10577000D880582F00F0A38004F1420584F84270CD
:105780003AE0A7F16303152BF6D801A151F823F0F5
:10579000E9570008FD5700087957000879570008B5
:1057A0007957000879570008FD5700087957000815
:1057B00079570008795700087957000809590008F7
:1057C0002D580008EB580008795700087957000851
:1057D0002B590008795700082D5800087957000800
:1057E00079570008F35800082B681A1D1B682A60B7
:1057F00004F1420584F842300123A3E020682968BF
:10580000060601F104030AD50E682B60002E03DAA8
:105810002D23764284F843305E480A2319E00E684F
:105820002B6010F0400F18BF36B2EFE72B682068EE
:10583000191D2960010601D51E6802E04606FBD548
:105840001E8854486F2F0CBF08230A23002184F8B8
:1058500043106568A560002DA2BF216821F00401F6
:1058600021600EB9002D4DD01546B6FBF3F103FBB8
:105870001167C75D05F8017D3746BB420E46F4D976
:10588000082B0BD12368DE0708D52369616899428C
:10589000DEBF302305F8013C05F1FF35521B2261C4
:1058A000CDF800A04B4603AA21464046FFF7E2FE92
:1058B00001304CD14FF0FF3004B0BDE8F0873548DF
:1058C00081F845702968236851F8046B29601D062A
:1058D00014D5DF0744BF43F0200323601EB92368BB
:1058E00023F0200323601023B0E7236843F0200354
:1058F00023607823284884F84530E3E7590648BFF9
:10590000B6B2E6E71546BBE72B6826686169181D45
:10591000286035061B6801D5196002E07006FBD5CA
:105920001980002323611546BAE72B681A1D2A60E7
:105930001D68626800212846FAF702FE08B1401B84
:10594000606063682361002384F84330A8E723691B
:105950002A4649464046D0470130ABD023689B07D2
:1059600013D4E068039B9842B8BF1846A4E701230C
:10597000324649464046D04701309BD00135E36866
:1059800003995B1AAB42F2DCEBE7002504F1190640
:10599000F5E700BF9A9B0008AB9B00080EB400B56A
:1059A0009CB01DAB029006906FF000410948079132
:1059B0000491094953F8042B05910068019302A949
:1059C00001F0A2FB029B00221A701CB05DF804EBF0
:1059D00003B07047700000200802FFFF30B5144686
:1059E000002C9BB005461A4605DA8B2303604FF066
:1059F000FF301BB030BD4FF40273ADF80C3014BF54
:105A000004F1FF332346029305934FF6FF73009191
:105A10000491ADF80E3069461E9B01F075FB431CE6
:105A2000BCBF8B232B60002CE3D0009B00221A709C
:105A3000DFE7000007B5009313460A460146034816
:105A40000068FFF7CBFF03B05DF804FB7000002097
:105A50002DE9F74F03690C69A3420746C0F2818024
:105A6000013C01F1140800F1140505EB84030193D6
:105A700058F8243055F8242001339A424FEA840B19
:105A800008EB8409B2FBF3F631D34FF0000E404629
:105A9000AC46F24650F8042B93B206FB03E34FEA00
:105AA000134E9BB2AAEB0303DCF800A0120C13FA0E
:105AB0008AF306FB02E20093009B4FEA124E92B279
:105AC000C2EB1A4202EB2342BDF80030814543EAA3
:105AD00002434CF8043B4FEA224ADBD255F80B3024
