:020000040800F2
:1000000000000120ED430008554200085B42000853
:1000100061420008674200086D42000800000000CD
:100020000000000000000000734200087942000850
:100030007F420008854200088B420008913F00087B
:1000400091420008974200089D420008A342000820
:100050008530000899300008A9420008AF42000826
:10006000B5420008BB420008C1420008C742000870
:10007000CD420008D3420008D9420008DF42000800
:10008000E5420008EB420008F1420008F742000890
:10009000FD42000803430008ED1B00080943000867
:1000A0000F430008154300085D0E0008510E0008BC
:1000B0001B430008214300082743000800000000FC
:1000C0000000000000000000000000000000000030
:1000D0000000000000000000000000002D430008A8
:1000E0000000000033430008394300083F43000884
:1000F000454300084B43000851430008574300089C
:100100005D430008000000007D3A000863430008DA
:10011000694300086F430008754300087B430008EB
:1001200081430008874300088D430008934300087B
:10013000994300089F430008A5430008AB4300080B
:10014000B1430008B7430008BD430008C34300089B
:10015000C9430008CF430008D5430008DB4300082B
:10016000E1430008E7430008000000000000000031
:1001700010B5054C237833B9044B13B10448AFF3E1
:1001800000800123237010BD8002002000000000C9
:10019000C4E3000808B5034B1BB103490348AFF3A0
:1001A000008008BD0000000084020020C4E30008B5
:1001B00081F0004102E000BF83F0004330B54FEA18
:1001C00041044FEA430594EA050F08BF90EA020F85
:1001D0001FBF54EA000C55EA020C7FEA645C7FEA18
:1001E000655C00F0E2804FEA5454D4EB5555B8BF3B
:1001F0006D420CDD2C4480EA020281EA030382EAAC
:10020000000083EA010180EA020281EA0303362D3D
:1002100088BF30BD11F0004F4FEA01314FF4801C10
:100220004CEA113102D0404261EB410113F0004F22
:100230004FEA03334CEA133302D0524263EB4303D9
:1002400094EA050F00F0A780A4F10104D5F1200E77
:100250000DDB02FA0EFC22FA05F2801841F10001D2
:1002600003FA0EF2801843FA05F359410EE0A5F1A6
:1002700020050EF1200E012A03FA0EFC28BF4CF0D7
:10028000020C43FA05F3C01851EBE37101F000458D
:1002900007D54FF0000EDCF1000C7EEB00006EEB9A
:1002A0000101B1F5801F1BD3B1F5001F0CD3490824
:1002B0005FEA30004FEA3C0C04F101044FEA44527B
:1002C00012F5800F80F09A80BCF1004F08BF5FEA02
:1002D000500C50F1000041EB045141EA050130BDE2
:1002E0005FEA4C0C404141EB0101013C28BFB1F5F4
:1002F000801FE9D291F0000F04BF01460020B1FA3F
:1003000081F308BF2033A3F10B03B3F120020CDA11
:100310000C3208DD02F1140CC2F10C0201FA0CF0EF
:1003200021FA02F10CE002F11402D8BFC2F1200C54
:1003300001FA02F120FA0CFCDCBF41EA0C0190400A
:10034000E41AA2BF01EB0451294330BD6FEA040453
:100350001F3C1CDA0C340EDC04F11404C4F120023E
:1003600020FA04F001FA02F340EA030021FA04F350
:1003700045EA030130BDC4F10C04C4F1200220FAA7
:1003800002F001FA04F340EA0300294630BD21FAE5
:1003900004F0294630BD94F0000F83F4801306BFAB
:1003A00081F480110134013D4EE77FEA645C18BF9F
:1003B0007FEA655C29D094EA050F08BF90EA020F36
:1003C00005D054EA000C04BF1946104630BD91EA2E
:1003D000030F1EBF0021002030BD5FEA545C05D131
:1003E0004000494128BF41F0004130BD14F5800470
:1003F0003CBF01F5801130BD01F0004545F0FE41E4
:1004000041F470014FF0000030BD7FEA645C1ABF18
:10041000194610467FEA655C1CBF0B46024650EA4F
:10042000013406BF52EA033591EA030F41F400217B
:1004300030BD00BF90F0000F04BF0021704730B501
:100440004FF4806404F132044FF000054FF00001D6
:1004500050E700BF90F0000F04BF0021704730B597
:100460004FF4806404F1320410F0004548BF40426C
:100470004FF000013EE700BF42004FEAE2014FEAC1
:1004800031014FEA02701FBF12F07F4393F07F4F9C
:1004900081F06051704732F07F4208BF704793F09F
:1004A0007F4F04BF41F40021704730B54FF46074B2
:1004B00001F0004521F000411CE700BF50EA0102B5
:1004C00008BF704730B54FF000050AE050EA01025E
:1004D00008BF704730B511F0004502D5404261EBCE
:1004E00041014FF4806404F132045FEA915C3FF40F
:1004F000D8AE4FF003025FEADC0C18BF03325FEAAC
:10050000DC0C18BF033202EBDC02C2F1200300FA5C
:1005100003FC20FA02F001FA03FE40EA0E0021FA81
:1005200002F11444BDE600BF034613F8012B002A74
:10053000FBD1181A013870470000000000000000CD
:1005400001F0FF01102A2BDB10F0070F08D010F884
:10055000013B013A8B422DD010F0070F42B3F6D188
:10056000F0B441EA012141EA014122F007047FF0A1
:1005700000070023F0E80256083C85EA010586EAF8
:10058000010685FA47F5A3FA87F586FA47F6A5FA34
:1005900087F68EB9EED1F0BC01F0FF0102F0070240
:1005A00032B110F8013B013A83EA010313B1F8D1EB
:1005B0000020704701387047002D06BF35460338CC
:1005C000073815F0010F07D1013015F4807F02BF05
:1005D000013015F4C03F0130F0BC0138704700BF56
:1005E00070B54FF0FF0C4CF4E06C1CEA11541DBFC9
:1005F0001CEA135594EA0C0F95EA0C0F00F0DEF894
:100600002C4481EA030621EA4C5123EA4C5350EA78
:10061000013518BF52EA033541F4801143F48013C9
:1006200038D0A0FB02CE4FF00005E1FB02E506F05A
:100630000042E0FB03E54FF00006E1FB03569CF0AF
:10064000000F18BF4EF0010EA4F1FF04B6F5007FB5
:1006500064F5407404D25FEA4E0E6D4146EB060627
:1006600042EAC62141EA55514FEAC52040EA5E50B0
:100670004FEACE2EB4F1FD0C88BFBCF5E06F1ED85A
:10068000BEF1004F08BF5FEA500E50F1000041EB91
:10069000045170BD06F0004646EA010140EA02003E
:1006A00081EA0301B4EB5C04C2BFD4EB0C0541EA60
:1006B000045170BD41F480114FF0000E013C00F375
:1006C000AB8014F1360FDEBF002001F0004170BD99
:1006D000C4F10004203C35DA0C341BDC04F11404B2
:1006E000C4F1200500FA05F320FA04F001FA05F23E
:1006F00040EA020001F0004221F0004110EBD3700B
:1007000021FA04F642EB06015EEA430E08BF20EA36
:10071000D37070BDC4F10C04C4F1200500FA04F3D9
:1007200020FA05F001FA04F240EA020001F000416B
:1007300010EBD37041F100015EEA430E08BF20EADE
:10074000D37070BDC4F1200500FA05F24EEA020E26
:1007500020FA04F301FA05F243EA020321FA04F055
:1007600001F0004121FA04F220EA020000EBD3700C
:100770005EEA430E08BF20EAD37070BD94F0000F0C
:100780000FD101F00046400041EB010111F4801F40
:1007900008BF013CF7D041EA060195F0000F18BFF1
:1007A000704703F00046520043EB030313F4801F2D
:1007B00008BF013DF7D043EA0603704794EA0C0FE7
:1007C0000CEA135518BF95EA0C0F0CD050EA4106FD
:1007D00018BF52EA4306D1D181EA030101F000417A
:1007E0004FF0000070BD50EA410606BF10461946A2
:1007F00052EA430619D094EA0C0F02D150EA0136AE
:1008000013D195EA0C0F05D152EA03361CBF1046EE
:1008100019460AD181EA030101F0004141F0FE418D
:1008200041F470014FF0000070BD41F0FE4141F411
:10083000780170BD70B54FF0FF0C4CF4E06C1CEA11
:1008400011541DBF1CEA135594EA0C0F95EA0C0FC6
:1008500000F0A7F8A4EB050481EA030E52EA033581
:100860004FEA013100F088804FEA03334FF08055A2
:1008700045EA131343EA12634FEA022245EA1115CF
:1008800045EA10654FEA00260EF000419D4208BF80
:10089000964244F1FD0404F5407402D25B084FEA2D
:1008A0003202B61A65EB03055B084FEA32024FF4D9
:1008B00080104FF4002CB6EB020E75EB030E22BF36
:1008C000B61A754640EA0C005B084FEA3202B6EBF6
:1008D000020E75EB030E22BFB61A754640EA5C00A5
:1008E0005B084FEA3202B6EB020E75EB030E22BF35
:1008F000B61A754640EA9C005B084FEA3202B6EB36
:10090000020E75EB030E22BFB61A754640EADC00F4
:1009100055EA060E18D04FEA051545EA16754FEA56
:1009200006164FEAC30343EA52734FEAC2025FEA74
:100930001C1CC0D111F4801F0BD141EA00014FF003
:1009400000004FF0004CB6E711F4801F04BF0143D4
:100950000020B4F1FD0C88BFBCF5E06F3FF6AFAEF0
:10096000B5EB030C04BFB6EB020C5FEA500C50F180
:10097000000041EB045170BD0EF0004E4EEA113103
:1009800014EB5C04C2BFD4EB0C0541EA045170BD0A
:1009900041F480114FF0000E013C90E645EA060E4E
:1009A0008DE60CEA135594EA0C0F08BF95EA0C0F7C
:1009B0003FF43BAF94EA0C0F0AD150EA01347FF4C4
:1009C00034AF95EA0C0F7FF425AF104619462CE79B
:1009D00095EA0C0F06D152EA03353FF4FDAE1046FE
:1009E000194622E750EA410618BF52EA43067FF44F
:1009F000C5AE50EA41047FF40DAF52EA43057FF4DF
:100A0000EBAE12E74FF0FF3C06E000BF4FF0010CE9
:100A100002E000BF4FF0010C4DF804CD4FEA410C4D
:100A20007FEA6C5C4FEA430C18BF7FEA6C5C1BD01A
:100A300001B050EA410C0CBF52EA430C91EA030F9B
:100A400002BF90EA020F0020704710F1000F91EAF8
:100A5000030F58BF994208BF90422CBFD8176FEAC6
:100A6000E37040F0010070474FEA410C7FEA6C5C94
:100A700002D150EA013C07D14FEA430C7FEA6C5C9B
:100A8000D6D152EA033CD3D05DF8040B704700BFC7
:100A90008446104662468C461946634600E000BF15
:100AA00001B5FFF7B7FF002848BF10F1000F01BDE7
:100AB0004DF808EDFFF7F4FF0CBF012000205DF8B2
:100AC00008FB00BF4DF808EDFFF7EAFF34BF012037
:100AD00000205DF808FB00BF4DF808EDFFF7E0FFD0
:100AE00094BF012000205DF808FB00BF4DF808ED21
:100AF000FFF7CEFF94BF012000205DF808FB00BF88
:100B00004DF808EDFFF7C4FF34BF012000205DF869
:100B100008FB00BF4FEA410C7FEA6C5C02D150EA4F
:100B2000013C0AD14FEA430C7FEA6C5C02D152EAE5
:100B3000033C02D14FF0000070474FF001007047B6
:100B40004FEA410212F5001215D211D56FF47873F5
:100B5000B3EB625212D94FEAC12343F0004343EA98
:100B6000505311F0004F23FA02F018BF4042704773
:100B70004FF00000704750EA013005D111F00040FD
:100B800008BF6FF0004070474FF00000704700BF93
:100B900080B400AF044B1B681B0EDBB21846BD4689
:100BA0005DF8047B704700BF0080E00F80B400AFA9
:100BB000034BDB689BB21846BD465DF8047B70476B
:100BC0000080E00F80B400AF034B5B689BB2184617
:100BD000BD465DF8047B70470080E00F80B483B0B1
:100BE00000AF786039607B681A683B6822FA03F3CB
:100BF00003F0010318460C37BD465DF8047B7047CF
:100C000080B483B000AF7860064B03F500531A46FA
:100C10007B68C2F8203400BF0C37BD465DF8047B0A
:100C2000704700BF00C0034080B400AF034BD3F84F
:100C300020341846BD465DF8047B704700C0034071
:100C400080B582B000AF03463960FB71FB79002BA1
:100C500007D0FB79012B04D0FB79022B01D0FB7963
:100C6000032BFA7913465B0013441B0103F11402B2
:100C7000054B134439681846FFF7B0FF0346184682
:100C80000837BD4680BD00BF30C0034080B483B08C
:100C900000AF03463960FB71FB79002B07D0FB796D
:100CA000012B04D0FB79022B01D0FB79032B0948DF
:100CB000FA7901213B68994013465B0013441B01FC
:100CC000034403F58253196000BF0C37BD465DF83D
:100CD000047B704700C0034080B483B000AF344B46
:100CE0005B6E03F48033002B0CBF01230023FB71E8
:100CF0002F4B03F580531A464FF4803353662C4B29
:100D00005B6EDB43DB0FBB71294B03F580531A4647
:100D10004FF000435366274B5B6C03F00103002B3D
:100D200014BF012300237B71224B4AF6CD321A6493
:100D300000BF204B5B6B03F00103002BF9D11D4B6F
:100D400003F500531A460123536000BF194B1B6B78
:100D500003F00103002BF9D0174BD3F8083603F04A
:100D60000203002B03D1154B4FF480221A607B79CC
:100D7000002B02D00F4B124A1A64BB79002B06D00D
:100D80000B4B03F500531A464FF000435366FB79B3
:100D9000002B06D0064B03F500531A464FF4803360
:100DA000536600BF0C37BD465DF8047B704700BF3B
:100DB000008000400040094000C007405C600940DE
:100DC0003254FFFF80B582B000AFFFF72DFF78608F
:100DD0001A4B1B78002B24D07B68022B23D1184898
:100DE00002F028F80346002B1FD0164B1B7883F027
:100DF0000103DBB2002B18D0124B01221A70104BEA
:100E00001B789AB2104B1A800D4B5B789BB21B0279
:100E10009AB20B4B9B789BB213449AB20B4B1A803D
:100E200003E000BF02E000BF00E000BF7868FFF70A
:100E3000E7FE00BF0837BD4680BD00BFF9060020B1
:100E4000940B00208E0B0020900B0020920B0020B2
:100E500080B500AFFFF7B6FF00BF80BD80B500AF23
:100E6000FFF7B0FF00BF80BD80B582B000AF034682
:100E7000FB71264B1B780133DAB2244B1A70234BDB
:100E80001B78162B37D8224B1B885A1C91B2204A4C
:100E9000118019461F4AFB7953541D4B1B88FF2BA9
:100EA00029D91B4B00221A8000BF01F005F9034627
:100EB00003F00103002BF8D1062001F01BF9164BBB
:100EC0001B68184601F0A8F900BF01F0F5F80346C9
:100ED00003F00103002BF8D1062001F00BF90E4BB3
:100EE0001B6819460B4801F05BF90B4B1B6803F5B7
:100EF0008073094A1360054B1B78312B02D9034BD1
:100F000000221A7000BF0837BD4680BDD2060020FF
:100F1000BC060020BC020020C006002090B585B0B1
:100F200002AF58237B8000233B800023FB711EE02F
:100F3000FB7998B2FB799AB27B88AF339BB2798800
:100F40000124009401F000FEFB799AB27B881344DF
:100F500099B2FB799AB27B8813449BB2012200922A
:100F6000AF22002001F0F0FDFB792C33FB71FB79FF
:100F7000AF2BDDD97B88AF339BB2798801220092F9
:100F8000AF22AF2001F0E0FD7B88AF3399B27B88C0
:100F9000AF339BB201220092AF22002001F0D4FDBA
:100FA00000237B7132E00023BB7129E07A79BB79A1
:100FB0001B4992000A4413441B783B70BB799BB2D7
:100FC0001A4692001A44520013449B009BB21033FD
:100FD00098B27B799BB21A4692001A44520013448D
:100FE0009B009AB27B8813449BB20F3399B23A4666
:100FF00000230093012301F021FCBB790133BB7175
:10100000BB79032BD2D97B7901337B717B79032B9D
:10101000C9D901F0DDFB00BF0C37BD4690BD00BF54
:101020000000002080B584B000AF78600023FB731F
:101030001CE002F0BBFF0346BB73BB7B03F0040361
:101040007B73FB7B7A6813441B783B737B7B7A68EA
:101050001A44FB7B79680B4412781A707B7B7A68A0
:1010600013443A7B1A70FB7B0133FB73FB7B0F2B22
:10107000DFD900BF00BF1037BD4680BD90B5B1B00D
:1010800002AFFFF729FE02F029FD00F077FF00F024
:10109000E3FF00F049FD02F075FD02F0D1FD02F022
:1010A00017FA01F075FF09210020FFF7EFFD042179
:1010B0000020FFF7EBFD5D4B01221A704FF47A70B0
:1010C00002F04EFFFFF772FD0346A7F8A630FFF7C8
:1010D0005FFD034687F8A530FFF774FD0346A7F8C8
:1010E000A230B7F8A21097F8A520B7F8A63050485C
:1010F00002F08EFE002001F091FC01F052FA01F0A6
:10110000C2FA012001F080FB01F0B0FA494B012244
:101110001A7001F04DFE03461A46474B1A70464BB3
:101120001B78062B04D14549454808F0C9F818E05A
:10113000414B1B78362B04D14249414808F0C0F896
:101140000FE03D4B1B78642B04D13F493C4808F02D
:10115000B7F806E0374B00221A703C49384808F0CF
:10116000AFF837493A4802F053FE002300930123B9
:10117000334A0021002001F061FB00F083FF00F002
:1011800081FF01F073F8C7F89C00D7F89C30002B62
:1011900010D0D7F89C305A42D7F89C301340D7F87B
:1011A0009C209A4206D1D7F89C202A49244808F06E
:1011B00087F803E02849224808F082F800F04CFF45
:1011C0001F49234802F024FE0023009301231C4AF8
:1011D0001421002001F032FB02F050FA1F4802F007
:1011E0001FFA1E4B1B780D2B3CD11C4B5B785D2BE3
:1011F00038D11A4B9B78DB0103F4F043174AC2F84D
:101200000431164B012283F80021144BD3F804312A
:10121000002B03D0114BD3F8043101E04FF40063ED
:101220001A460F49064808F04BF823E0F90600205B
:1012300024BE00088C0B00208D0B00204CBE000843
:10124000FC0600205CBE00086CBE00087CBE0008E6
:101250008CBE000894BE0008A0BE0008DC4500203B
:10126000B0BE0008C74B002283F80021C649C7481A
:1012700008F026F8C549C64802F0CAFD00230093CD
:101280000123C24A2821002001F0D8FA40F252225C
:101290006E21C04801F076FA01F09DF901F098FA4C
:1012A00001F096FA01F0E2F9642002F059FE01F033
:1012B00092F9012001F0A8FA01F08AFAB648FFF786
:1012C000B1FE40F252221621B24801F05BFAFFF75C
:1012D00025FE01F07DFA01F0C9F9B04B1B78002B17
:1012E00000F09181AD4B1B78002B00F08881AC4B56
:1012F0001B88AF2B00F28381AA4B1B88C3F1AF037D
:101300009AB2A84B1A80A64B1B88C3F5847301338D
:101310009AB2A34B1A80A34B1B8807EE903AB8EE03
:10132000E77ADFEDA16AC7EE267AC7ED267A9C4BF5
:101330001B88583B07EE903AB8EEE77ADFED9A6AE1
:10134000C7EE267AC7ED257A07F18403184697ED94
:10135000260A07F0CDFA87ED240A07F18003184624
:1013600097ED250A07F0C4FA87ED230AD7ED217A15
:10137000FCEEE77A17EE903AA7F88A30D7ED207A9C
:10138000FCEEE77A17EE903AA7F88830D7ED247A8A
:101390009FED867AF4EEC77AF1EE10FA08DDD7ED0C
:1013A000247A9FED837AF4EEC77AF1EE10FA08D42E
:1013B000B7F88A30002B04D0B7F88A30032B40F0FE
:1013C0001E81D7ED237A9FED797AF4EEC77AF1EE9C
:1013D00010FA08DDD7ED237A9FED757AF4EEC77A1F
:1013E000F1EE10FA08D4B7F88830002B04D0B7F823
:1013F0008830032B40F0038101F0EDF8B7F8882026
:10140000B7F88A30644992000A4413441A78694B49
:101410001A70684B00225A70B7F88A301A46920048
:101420001A44520013449B009BB2023398B2B7F89F
:1014300088301A4692001A44520013449B009BB213
:101440005A3399B2B7F88A30022B01D8282200E02B
:101450002722B7F88830022B01D8282300E0272361
:101460000124009401F054FCB7F88A301A46920027
:101470001A44520013449B009BB2103398B2B7F841
:1014800088301A4692001A44520013449B009BB2C3
:10149000673399B2012300930023464A01F0CEF945
:1014A00040F2522216213B4801F06CF901F090F90C
:1014B000012001F0A9F940F252221621354801F02D
:1014C00061F93C4B1B7819463B4802F0A1FC3B4BB1
:1014D0001B785A1CD1B2394A11701A46354B19780B
:1014E000374B9954354B1B78062B78D1002387F85E
:1014F000AB302DE097F8AB30324AD25C97F8AB3086
:101500002F49CB5C9A421ED0012001F07DF901F0F9
:101510005FF90123009340F20713AF22002100205E
:1015200001F012FB0123009340F207130022002177
:10153000AF2001F009FB01F0BDF801F097F8224857
:1015400002F066FCFEE797F8AB30013387F8AB306A
:101550001A4B1B7897F8AB209A42CBD31B4802F06A
:1015600057FC02E00A2002F0FBFC194801F062FC83
:101570000346002BF6D1094B00221A70154B0122AD
:101580001A7040E0DC450020BCBE0008FC060020CC
:101590008CBE0008D0BB0008000000208E0B00208D
:1015A000920B0020900B002000003042CDCC4C3E2E
:1015B000CDCC4C3FE8060020CCBE0008E40600205D
:1015C000D406002010000020D0BE0008E0BE0008B5
:1015D000940B0020F80600200A2002F0C1FCA3486A
:1015E00001F028FC0346002BF6D1A14B00221A7013
:1015F000A048FFF717FDFFF791FC01F037F89C4B6F
:1016000000221A706EE64FF4FA7002F0A9FC00F0A6
:1016100039FD00F0E0FF242000F002FF964B00228D
:101620001A80964B00221A600023A7F8A8302AE0FF
:10163000914B1B88002B0BD1904B1B68194690488F
:1016400000F070FD8D4B1B6803F580738B4A1360AF
:10165000894B1B881A468A4B9B5C184600F000FF9A
:10166000854B1B8801339AB2834B1A80824B1B88AF
:10167000B3F5807F02D1804B00221A80B7F8A830E2
:101680000133A7F8A830B7F8A83041F2AF6293420F
:10169000CED900F0E1FC01F043F800BF04210120A5
:1016A000FFF7CEFA0346002BF8D100F0DFFF754BB1
:1016B00000221A806E4B1B78002B5ED0724B1B7879
:1016C000002B5AD000F0DEFC694B00221A706F4BE1
:1016D0001B6803F580336D4A13606C4B1B68B3F5D0
:1016E000A02F02D9694B00221A6000F074FF242059
:1016F00000F096FE604B00221A80644B1B685F4A24
:1017000013600023A7F8AC302AE05B4B1B88002B4A
:101710000BD15A4B1B681946594800F003FD574B33
:101720001B6803F58073554A1360534B1B881A4698
:10173000534B9B5C184600F093FE4F4B1B880133C4
:101740009AB24D4B1A804C4B1B88B3F5807F02D167
:10175000494B00221A80B7F8AC300133A7F8AC30FF
:10176000B7F8AC3041F2AF629342CED900F0D8FF67
:1017700000F07CFF3E4B00221A70434B1B78002B7D
:1017800004D0404B1B88002B40F096803E4B00223B
:101790001A7001F0E9FD03463D4A13603C4B1B689B
:1017A000002B87D03A4B1B68C3F30B03022B59D98C
:1017B000374B1B6803F40043002B20D0354802F060
:1017C00027FB0023C7F8B4300DE0334AD7F8B43014
:1017D00013441B781946314802F01AFBD7F8B4308D
:1017E0000133C7F8B4302A4B1B68C3F30B03D7F897
:1017F000B4209A42E9D32A4802F00AFB32E0244B93
:101800001B68C82B17D9274B00225A62224B1B7921
:101810005B00DAB2244B1A70244802F0F9FA194B33
:101820001B885A1C91B2174A118001331A49184675
:1018300001F0FCFF16E0164B1B68052B12D1164B6E
:101840001B78022B0ED11A4B1B78002B0AD0164B9B
:101850001B781846174B0222194601F077FF144BEC
:1018600000221A7001F0ACFD24E700BF940B0020A9
:101870008E0B002000000020BC060020C0060020C7
:10188000BC020020D006002091440020C4060020A5
:101890007C070020ECBE000894440020FCBE000839
:1018A00004BF000800C00440CD0600200CBF0008A3
:1018B000CE060020954400204C4B1B8819464C480E
:1018C00002F0A6FA00F0DEFB4A4B00221A804A4BD7
:1018D0001B684A4A13604A4B1B78002B3FF4E7AE63
:1018E0000023A7F8B23037E0B7F8B23001334549EA
:1018F000184601F065FF00BF424B93F80831002BFA
:10190000FAD10623A7F8B0300BE0B7F8B0303D4A63
:10191000D35C1846FFF7A8FAB7F8B0300133A7F840
:10192000B030B7F8B030FD2BEFD9B7F8B2305B006C
:1019300002223449184601F0CFFE324B1B7818467C
:10194000FFF792FA2F4B5B781846FFF78DFAB7F83E
:10195000B2300133A7F8B230B7F8B2303B2BC3D95D
:1019600000F039FE242000F05BFD224B00221A809B
:10197000214B1B68214A13600023A7F8AE302AE0F0
:101980001C4B1B88002B0BD11C4B1B6819461E4897
:1019900000F0C8FB194B1B6803F58073174A1360EE
:1019A000144B1B881A46184B9B5C184600F058FDD8
:1019B000104B1B8801339AB20E4B1A800D4B1B88BB
:1019C000B3F5807F02D10B4B00221A80B7F8AE30FE
:1019D0000133A7F8AE30B7F8AE3041F2AF629342B0
:1019E000CED900F09DFE00F041FE60E6D00600205A
:1019F00010BF0008BC060020C4060020C00600205E
:101A0000F8060020DC450020BC02002080B584B030
:101A100000AF78603960214B1B7883F00103DBB2A3
:101A2000002B01D01E4B34E07B68002B01D11D4BF5
:101A30002FE004F021FEB8600023FB6022E01A4A88
:101A4000FB681B0113440C331B7883F00103DBB2EA
:101A5000002B14D0FA687B681A60134AFB681B01DC
:101A600013440C3301221A700F4AFB681B01134404
:101A700000221A60B86804F010FE002309E0FB6839
:101A80000133FB60FB68072BD9DDB86804F005FE65
:101A9000064B18461037BD4680BD00BF9C0B00208A
:101AA000028000F0018000F0A00B0020048000F014
:101AB00080B584B000AF7860164B1B7883F00103CB
:101AC000DBB2002B01D0144B1FE07B68072B01D940
:101AD000124B1AE004F0D0FDF860114A7B681B013C
:101AE00013440C331B78002B0BD00D4A7B681B0171
:101AF00013440C3300221A70F86804F0CEFD002362
:101B000003E0F86804F0C9FD064B18461037BD46DF
:101B100080BD00BF9C0B0020028000F0018000F01F
:101B2000A00B0020068000F080B584B000AF194BF8
:101B30001B687B6002233B7104F09EFDB860164B6E
:101B40001B78002B04D0B86804F0A7FD134B1CE0F1
:101B5000114B01221A70B86804F09FFD0023FB604E
:101B600009E00F4AFB681B0113440C3300221A7072
:101B7000FB680133FB60FB68072BF2DD0023FB7180
:101B80003B1D184606F07CFA002318461037BD4668
:101B900080BD00BF58BF00089C0B0020038000F0F0
:101BA000A00B002080B58CB008AFF860B9607A60F7
:101BB0003B60BB6A07937B6A069397F820300593D6
:101BC000FB6904933B7E0393002302933B680193DC
:101BD0007B680093BB68FA680021002000F078F869
:101BE000034618461037BD4680BD000080B586B05C
:101BF00000AF344B1B6DFB60324B5B6DFA681340DA
:101C0000FB60FB68002B00DAFEE700237B61012309
:101C10003B614FE0FA683B691340002B44D0294BED
:101C200003F500531A463B6913657B691B01264A7D
:101C30001344BB60BB681B68002B35D0BB689B6836
:101C40005A1CBB689A60BB681B68BA689168BA681E
:101C50005268786998470346002B14BF012300237C
:101C6000DBB283F00103DBB2FB71FB7903F001030C
:101C7000FB71BB685B7B012B16D1FB79002B13D06A
:101C8000124A7B695B01134403F1080213796FF375
:101C9000410313710D4A7B695B01134403F1180280
:101CA00013796FF3410313717B6901337B613B69E6
:101CB0005B003B617B69072BACD900BF00BF1837C5
:101CC000BD4680BD00000440A00B0020200C002079
:101CD00090B58BB000AFBA607B600346FB730B46D8
:101CE000BB737A4B1B7883F00103DBB2002B01D06E
:101CF000774BE7E0BB68072B0FD8BB6B002B0CD0F2
:101D0000FB6B002B09D0BB6CB3F5006F05DCFB7BD4
:101D1000012B04D13B6C002B01D16E4BD2E0BB6890
:101D20001B016D4A13447B627B6A1B7B83F00103BA
:101D3000DBB2002B01D0694BC4E007F11003002295
:101D40001A605A609A60DA60BB685B01644A1344A7
:101D50003B62BB7B002B1DD13B6A1A4600231360FC
:101D600053609360D3603A6A937843F010039370A2
:101D70003A6AD37843F03003D37097F8443083F055
:101D80000103DBB2002B22D03A6AD37843F003037D
:101D9000D3701CE03B6A1A460023136053609360C3
:101DA000D3603A6A937843F0100393703A6AD37819
:101DB00043F00303D37097F8443083F00103DBB2A0
:101DC000002B04D03A6AD37843F03003D3707B6899
:101DD0003B61BB6C9BB2013B9BB2C3F30A0399B25C
:101DE0003A6A138861F30E131380BA6B3B6A9A60E8
:101DF000FA6B3B6A5A6097F84C3003F00303D9B290
:101E00003A6AD37861F38303D370FB7B012B3AD119
:101E10003A6A137B43F0010313733A6A137B43F06E
:101E2000020313733A6AD368042161F39F03D360FA
:101E30002B4ABB685B01134403F110023B6A144652
:101E40000FCB84E80F00264ABB685B01134403F103
:101E5000180253686FF0030161F39F0353603A6CFB
:101E60001F49BB685B010B4414331A60BB7B012B19
:101E700009D1FA6B1A49BB685B010B4418331A602D
:101E80003A6C3B6A5A603B6D002B07D1FB7B002B01
:101E900004D13A6A93786FF3041393707B6A3A6DB6
:101EA0001A607B6A7A6D5A607B6A00229A607B6A4C
:101EB000FA7B5A73BB6807F110013A6A184606F0BC
:101EC00025F9002318462C37BD4690BD9C0B0020F9
:101ED000028000F0018000F0A00B0020078000F0DD
:101EE000200C002080B483B000AF03463960FB7142
:101EF000FB79002B07D0FB79012B04D0FB79022B57
:101F000001D0FB79032B0948FA7901213B689940FC
:101F100013465B0013441B01034403F5015319608E
:101F200000BF0C37BD465DF8047B704700C003401E
:101F300080B483B000AF03463960FB71FB79002B9E
:101F400007D0FB79012B04D0FB79022B01D0FB7960
:101F5000032B0948FA7901213B68994013465B003D
:101F600013441B01034403F58253196000BF0C376F
:101F7000BD465DF8047B704700C00340B0B588B033
:101F800000AF2F4B3C1D1D460FCD0FC495E8070039
:101F900084E807000123BB742A4BFB600121292040
:101FA00002F08CFB01213A2002F088FB002304227E
:101FB0000321032005F0FCFA00230422062100205F
:101FC00005F0F6FA002301220421012005F0F0FAC1
:101FD000012302220221032005F0EAFA0123042250
:101FE0000021022005F0E4FA01230422022102204C
:101FF00005F0DEFA012302220121022005F0D8FAC1
:10200000002304220321022005F0D2FA3B1D1946C9
:102010000D4806F08CFB0D4B4FF00212C3F8B027B1
:102020000A4B0B4AC3F8A827084B0A4AC3F8AC2747
:10203000064B1C22C3F8982700BF2037BD46B0BD11
:102040005CBF00088096980000C0054000C00340B7
:10205000020001000200030080B500AF0021022051
:10206000FFF766FF00210220FFF73CFF79210448BB
:1020700006F01EFC00210220FFF75AFF00BF80BDC2
:1020800000C0054080B500AF00210220FFF750FFDF
:1020900000210220FFF726FFAB21064806F008FCCE
:1020A00000210220FFF744FF012001F059FF00BF8B
:1020B00080BD00BF00C0054080B500AF00210220F8
:1020C000FFF710FF0521094806F0F2FB0021074841
:1020D00006F0EEFB03461A46054B1A70002102205B
:1020E000FFF726FF024B1B78184680BD00C0054055
:1020F000400D002080B582B000AF0346FB71002187
:102100000220FFF7EFFEFB791946054806F0D0FBE9
:1021100000210220FFF70CFF00BF0837BD4680BD3D
:1021200000C0054090B585B000AF786039604FF4CD
:102130008073FB6000210220FFF7D4FE03211748C3
:1021400006F0B6FB3B681B0CDBB21946134806F0E1
:10215000AFFB3B681B0ADBB21946104806F0A8FB30
:102160003B68DBB219460D4806F0A2FB08E07C682C
:10217000631C7B600021094806F09AFB034623702C
:10218000FB685A1EFA60002BF1D100210220FFF7F4
:10219000CFFE00BF1437BD4690BD00BF00C0054054
:1021A00080B584B000AF786039604FF48073FB6015
:1021B00000210220FFF796FE0221164806F078FB68
:1021C0003B681B0CDBB21946124806F071FB3B68FA
:1021D0001B0ADBB219460F4806F06AFB3B68DBB20C
:1021E00019460C4806F064FB07E07B685A1C7A60CD
:1021F0001B781946074806F05BFBFB685A1EFA601D
:10220000002BF2D100210220FFF792FE00BF103711
:10221000BD4680BD00C0054080B582B000AF78608B
:1022200000210220FFF75EFE81210F4806F040FBEF
:102230007B681B0CDBB219460B4806F039FB7B6848
:102240001B0ADBB21946084806F032FB7B68DBB29A
:102250001946054806F02CFB00210220FFF768FE16
:1022600000BF0837BD4680BD00C0054080B582B0C4
:1022700000AF00233B6000210220FFF733FE5A210C
:10228000244806F015FB0023FB7109E000212148DA
:1022900006F00EFB03460133BB71FB790133FB7182
:1022A000FB790A2BF2D900211A4806F001FB002322
:1022B000FB7106E00021174806F0FAFAFB790133BA
:1022C000FB71BB79DB00DA1CFB799A42F2DA00235E
:1022D000FB710FE03B681B0A3B6000210D4806F0D4
:1022E000E7FA03461B061A463B6813433B60FB793B
:1022F0000133FB71FB79032BECD93B6801333B6065
:1023000000210220FFF714FE3B685B0B18460837DC
:10231000BD4680BD00C0054080B483B000AF78608A
:1023200039607B681A683B6822FA03F303F0010303
:1023300018460C37BD465DF8047B704780B582B007
:1023400000AF03463960FB71FB79002B07D0FB79A6
:10235000012B04D0FB79022B01D0FB79032BFA79F6
:1023600013465B0013441B0103F11402054B134495
:1023700039681846FFF7D0FF034618460837BD46B0
:1023800080BD00BF30C0034080B483B000AF0346BF
:102390003960FB71FB79002B07D0FB79012B04D04E
:1023A000FB79022B01D0FB79032B0948FA79012133
:1023B0003B68994013465B0013441B01034403F53B
:1023C0000153196000BF0C37BD465DF8047B7047B0
:1023D00000C0034080B483B000AF03463960FB7196
:1023E000FB79002B07D0FB79012B04D0FB79022B62
:1023F00001D0FB79032B0948FA7901213B68994008
:1024000013465B0013441B01034403F58253196018
:1024100000BF0C37BD465DF8047B704700C0034029
:1024200080B582B000AF0346FB7102210320FFF7A5
:10243000D1FF02210320FFF7A7FF03210320FFF7AD
:10244000A3FFFB791946054806F032FA0221032062
:10245000FFF7C0FF00BF0837BD4680BD00C0054084
:1024600080B582B000AF0346FB7103210320FFF764
:10247000B1FF02210320FFF7ADFF02210320FFF788
:1024800083FFFB791946054806F012FA0221032062
:10249000FFF7A0FF00BF0837BD4680BD00C0054064
:1024A00080B582B000AF7860396007E07B685A1C65
:1024B0007A601B781946064806F0FAF93B685A1EFE
:1024C0003A60002BF2D100BF00BF0837BD4680BD87
:1024D00000C0054080B582B000AF03463960FB7193
:1024E00002210320FFF750FF03210320FFF772FFB3
:1024F00004E0FB791946084806F0DAF93B685A1EF1
:102500003A60002BF5D102210320FFF763FF00BFE3
:102510000837BD4680BD00BF00C0054080B582B011
:1025200000AF0346FB7103210320FFF72DFF0221BB
:102530000320FFF729FFFB791946074806F0B8F991
:1025400002210320FFF746FF02210320FFF742FF8D
:1025500000BF0837BD4680BD00C0054080B500AF54
:10256000012001F0FDFC06210020FFF70DFF0520F2
:1025700001F0F6FC06210020FFF72CFF0A2001F0F5
:10258000EFFC06210020FFF7FFFE052001F0E8FC2C
:1025900002210320FFF71EFF052001F0E1FC00BF30
:1025A00080BD80B500AFFFF7D9FF00BF0421012037
:1025B000FFF7C4FE0346002BF8D11220FFF7AEFF51
:1025C00000BF04210120FFF7B9FE0346002BF8D11C
:1025D00000BF00BF80BD80B500AFFFF7BFFF00BFE9
:1025E00004210120FFF7AAFE0346002BF8D1122098
:1025F000FFF794FF00BF04210120FFF79FFE034671
:10260000002BF8D11820FFF70BFF8020FFF728FFE1
:102610002220FFF705FFB120FFF722FF2020FFF760
:10262000FFFE00BF04210120FFF788FE0346002BB8
:10263000F8D11A20FFF7F4FE6420FFF711FF002005
:10264000FFF70EFF2220FFF7EBFE9120FFF708FFB8
:102650002020FFF7E5FE00BF04210120FFF76EFEFA
:102660000346002BF8D100BF00BF80BD80B500AF8E
:102670001020FFF7D5FE0120FFF7F2FE642001F0E5
:102680006FFC00BF80BD80B500AF2420FFF7C8FEFF
:1026900041F2B061FF20FFF71DFF2620FFF7C0FECB
:1026A00041F2B061FF20FFF715FF00F023F800BFF3
:1026B00080BD000080B582B000AF2420FFF7B0FEDF
:1026C00000237B6009E00A4A7B6813441B781846A4
:1026D000FFF7C6FE7B6801337B607B6841F2AF6227
:1026E0009342F0D900F01CF800BF0837BD4680BD0A
:1026F000640D002080B500AF2220FFF791FEF72087
:10270000FFF7AEFE2020FFF78BFE00BF0421012063
:10271000FFF714FE0346002BF8D100BF00BF80BDB9
:1027200080B500AF2220FFF77BFEC720FFF798FEA1
:102730002020FFF775FE012001F012FC00BF0421EC
:102740000120FFF7FBFD0346002BF8D100BF00BFBF
:1027500080BD80B500AF2220FFF762FEFF20FFF7AB
:102760007FFE2020FFF75CFE012001F0F9FB00BF97
:1027700004210120FFF7E2FD0346002BF8D100BF42
:1027800000BF80BD80B487B000AFF8600B467A60B0
:102790007B810023FB820EE0FB685A1CFA60F98AF9
:1027A0007A89162000FB02F20A441978074B9954E3
:1027B000FB8A0133FB82FB8A7A689A42ECD800BF1D
:1027C00000BF1C37BD465DF8047B7047640D0020D8
:1027D00080B500AF2420FFF723FE02210320FFF77E
:1027E000D3FD03210320FFF7F5FD41F2B061054859
:1027F000FFF756FE02210320FFF7ECFDFFF7A9FFCC
:1028000000BF80BD640D002080B582B000AF0346DC
:10281000FB71FB79002B02D0FF23FB7101E0002349
:10282000FB71FB7941F2B0621946034806F0D6F815
:1028300000BF0837BD4680BD640D002080B588B05C
:1028400000AFBA601A460346FB810B46BB811346B4
:10285000FB80B868FDF768FEB86101233B77FA8812
:102860003B8D9A4209D100233B77FB88002B02D095
:102870000023FB8001E00123FB8000237B77A9E09C
:102880007B7FBA6813441B78203BFB750023FB77E2
:1028900099E0FB7F5B00DAB2FB7D1146184600F041
:1028A000A3F80346BB75FB7F5B00DBB20133DAB2F2
:1028B000FB7D1146184600F097F803467B75002310
:1028C000BB777AE0BA7DBB7F42FA03F303F00103E2
:1028D000002B17D07B7F9BB21A46520013449B00FB
:1028E0009AB2FB8913449AB2FB7F9BB2134498B20D
:1028F000BB7F9AB2BB8913449BB2FA88194600F099
:102900009DF819E03B7F002B16D07B7F9BB21A46C7
:10291000520013449B009AB2FB8913449AB2FB7F86
:102920009BB2134498B2BB7F9AB2BB8913449BB24B
:102930003A8D194600F082F87A7DBB7F42FA03F3A4
:1029400003F00103002B19D07B7F9BB21A46520083
:1029500013449B009AB2FB8913449AB2FB7F9BB24B
:10296000134498B2BB7F9AB2BB8913449BB208331D
:102970009BB2FA88194600F061F81BE03B7F002B00
:1029800018D07B7F9BB21A46520013449B009AB228
:10299000FB8913449AB2FB7F9BB2134498B2BB7F6E
:1029A0009AB2BB8913449BB208339BB23A8D194645
:1029B00000F044F8BB7F0133BB77BB7F072B81D985
:1029C000FB7F0133FB77FB7F0B2B7FF662AF7B7FB7
:1029D00001337B777B7FBA699A423FF651AF00BFE4
:1029E00000BF2037BD4680BD80B483B000AF034632
:1029F0000A46FB711346BB71FA79B979064813464A
:102A00005B001344DB0003440B441B7818460C376F
:102A1000BD465DF8047B7047D4C4000880B483B021
:102A200000AF0346FB80044AFB88138000BF0C37CD
:102A3000BD465DF8047B70471424002080B487B045
:102A400000AF0346FB800B46BB8013467B801623FA
:102A50007B823B4B1B88B3F5877F21D0B3F5877F03
:102A600065DCB42B12D0B42B61DC002B02D05A2BC6
:102A700005D05CE0FB88FB82BB88BB8218E0BB888A
:102A8000C3F1AF03FB82FB88BB8211E0FB88C3F17B
:102A9000AF03FB82BB88C3F583730133BB8207E0BE
:102AA000BB88FB82FB88C3F583730133BB8200BF05
:102AB000FB8AC3F1AF03FB8200BFFB8AB02B38D87F
:102AC000BB8AB3F5847F34D8FB8ADB089AB2B98A13
:102AD0007B8A11FB03F39BB213443B823B8A194A66
:102AE000D35CFB737B88012B11D1FB8A03F00703B6
:102AF000802242FA03F35BB2DB435AB297F90F30FC
:102B000013405AB23B8AD1B20E4AD15412E0FB8A2A
:102B100003F00703802242FA03F35AB297F90F3009
:102B200013435AB23B8AD1B2064AD15402E000BFE5
:102B300000E000BF1C37BD465DF8047B704700BF56
:102B400014240020640D002090B587B000AF044627
:102B5000084611461A462346FB800346BB800B46B7
:102B60007B8013463B80FA887B889A4205D27A881C
:102B7000FB88D31A9BB21BB204E0FA887B88D31A75
:102B80009BB21BB27B82BA883B889A4205D23A88B4
:102B9000BB88D31A9BB21BB204E0BA883B88D31A15
:102BA0009BB21BB23B82FA887B889A4201D20123F6
:102BB00001E04FF0FF33FB81BA883B889A4201D293
:102BC000012301E04FF0FF33BB81B7F91220B7F9C1
:102BD00010309A4206DDB7F91230DA0F13445B1059
:102BE0001BB206E0B7F91030DA0F13445B105B42FA
:102BF0001BB2FB82B7F91230002B28D13A88BB8870
:102C00009A4205D23B883B81BB883B803B89BB8095
:102C10007A88FB889A4205D27B883B81FB887B803F
:102C20003B89FB80BB88BB820BE0B98A3A8DFB886D
:102C30001846FFF703FFB7F914309BB201339BB27C
:102C4000BB82B7F914203B889A42EEDD5DE0B7F90C
:102C50001030002B28D13A88BB889A4205D23B8895
:102C60003B81BB883B803B89BB807A88FB889A424A
:102C700005D27B883B81FB887B803B89FB80FB887E
:102C8000BB820BE0BB8A3A8DB9881846FFF7D6FEA7
:102C9000B7F914309BB201339BB2BB82B7F9142051
:102CA0007B889A42EEDD30E03A8DB988FB88184681
:102CB000FFF7C4FEFA887B889A4203D1BA883B8822
:102CC0009A4221D0FB8A7B81B7F90A20B7F91230EA
:102CD0005B429A4208DDFA8A3B8AD31A9BB2FB8296
:102CE000FA89FB881344FB80B7F90A20B7F9103042
:102CF0009A42D9DAFA8A7B8A13449BB2FB82BA8958
:102D0000BB881344BB80CFE700BF1C37BD4690BDD6
:102D100090B587B002AF0446084611461A462346CE
:102D2000FB800346BB800B467B8013463B80FB88C1
:102D3000AF2B39D8BB88B3F5847F35D2FA887B882E
:102D40001344AF2B03DDFB88C3F1B0037B80BA884B
:102D50003B881344B3F5847F03DBBB88C3F58473DE
:102D60003B800023FB7319E0FB7B9AB2BB881344C2
:102D700099B2FA887B8813449CB2FB7B9AB2BB88D9
:102D800013449AB297F820309BB2F8880093134608
:102D90002246FFF7D9FEFB7B0133FB73FB7B9BB223
:102DA0003A889A42E0D200E000BF1437BD4690BD99
:102DB00080B582B000AF1B4B70221A80194B0422E1
:102DC0005A80194BA3221A70164B174A5A60154B9A
:102DD00001221A81134B154ADA60124B01221A8222
:102DE00010494FF0964005F013F803467B60104BF6
:102DF0001B683B600BE04FF0964004F09DFD0346DE
:102E00007B600B4B1A683B68D31A0A2B03D87B688C
:102E1000012BF0D000E000BF044B1B7818460837A8
:102E2000BD4680BD402400205C24002054240020A6
:102E30003047002080B584B000AF7860234B70220B
:102E40001A80224B04225A80214B02221A701F4BF7
:102E50001F4A5A601D4B01221A811C4B1D4ADA6021
:102E60001A4B05221A821C4B1B68BB6017494FF096
:102E7000964004F0CDFF0346FB600BE04FF0964018
:102E800004F05AFD0346FB60134B1A68BB68D31A63
:102E90000A2B03D8FB68012BF0D000E000BF7B6851
:102EA0005A1C7A600B4A92781A707B685A1C7A60B6
:102EB000084AD2781A70074B1A797B681A70054B4A
:102EC0001B7818461037BD4680BD00BF4024002047
:102ED0005C240020542400203047002080B483B0BC
:102EE00000AF0346FB7197F90730002B0BDBFB7932
:102EF00003F01F02074997F907305B09012000FA28
:102F000002F241F8232000BF0C37BD465DF8047B78
:102F1000704700BF00E100E080B483B000AF78608C
:102F200039607B6803F500531A463B68536100BF64
:102F30000C37BD465DF8047B704780B483B000AFAA
:102F4000786039607B689A693B681A437B689A614C
:102F500000BF0C37BD465DF8047B704780B483B07A
:102F600000AF78607B680122DA6000BF0C37BD4695
:102F70005DF8047B704780B483B000AF78607B68F5
:102F80005B6A18460C37BD465DF8047B704700004D
:102F900080B500AF01213A2001F090FB01212420EF
:102FA00001F08CFB0121252001F088FB0023032286
:102FB0000821002004F0FCFA274B03F580531A4641
:102FC0000123C2F8F836244B03F580531A464FF418
:102FD0000023C2F8FC36214A0021214805F0BFFA3F
:102FE0001D4B03F580531A460123C2F818371A4BBC
:102FF00003F580531A464FF40023C2F81C37012111
:103000001848FFF79AFF0520FFF768FF1649144894
:1030100005F01EFA1549134805F01AFA144B1B68FF
:10302000144A1549184605F071F80121232001F0D2
:1030300045FB124B41F221021A60104B46F26332FB
:103040005A600E4B00225A720C490D4804F03EF9AA
:1030500000F0B6F900BF80BD00C003402C00002086
:103060000080044000C004403C0000204C000020D0
:103070001800002024DF000814DF00081C000020D6
:103080000080084080B500AF11210248FFF744FFDF
:1030900000BF80BD0080044080B500AF044B01221A
:1030A0001A7011210348FFF737FF00BF80BD00BF32
:1030B0009144002000C0044080B483B000AF0346B8
:1030C000FB712C4B00221A70FA792B4B1B78DBB268
:1030D0001344DAB2284B1A70284B1B78DBB2082B4A
:1030E00016D0FB79254A1278D2B293405AB2244BBB
:1030F0001B785BB213435BB2DAB2214B1A701F4BE1
:103100001B78DBB20133DAB21C4B1A7000232AE0C1
:10311000194B1B78DBB203F00103002B14D0194BC1
:103120001B685A1C17490A60154A1178164AD1546F
:10313000134B1A78154B1A62144B5B6A002B06D19D
:103140000C4B01221A7002E00A4B01221A700C4B40
:1031500000221A70094B00221A70074B00221A70C5
:10316000044B1B78DBB218460C37BD465DF8047B78
:10317000704700BF8E4400208D4400208C44002006
:103180008B44002094450020944400200080084097
:1031900080B500AF7049714B1A6813465B00134449
:1031A0001B010B446C331B686D4A9B1A5B089BB276
:1031B000C3F30B039AB26A4B03F500531A80684BB2
:1031C00003F500531B889AB2654B03F500535B88E7
:1031D0009BB29A4200F0BD80614B03F500535B88BF
:1031E0009BB25A1C91B25E4A02F5005251801A46B7
:1031F0005B4B33F812309AB2594B03F50053DA8027
:10320000574B03F500535B889BB2C3F30B039AB291
:10321000534B03F500535A80514B03F50053DB88A1
:103220009BB25E2B01D8002394E04D4B03F5005375
:103230005B7ADBB2012B58D1494B03F50053DB8895
:103240009BB2B3F5AF7F4EDCB3F5827F3EDA8C2BB9
:1032500002DC5F2B04DA46E0A03B5F2B43D813E08F
:10326000404B1B78DBB2002B04D10120FFF724FF79
:1032700003466FE03B4B1B78DBB2022B04D10020EE
:10328000FFF71AFF034665E0364B1B78DBB2002BD5
:103290000FD1344B02221A700020FFF70DFF0346B6
:1032A000002B01D0012355E00020FFF705FF034666
:1032B00050E02C4B1B78DBB2022B07D1294B0022AC
:1032C0001A700120FFF7F8FE034643E00020FFF7E5
:1032D000F3FE0346002B01D001233BE00120FFF762
:1032E000EBFE034636E0012334E01D4B03F50053AB
:1032F000DB889BB28C2B02DC5F2B04DA27E0A03B3F
:103300005F2B24D811E0174B02221A70144B03F5DF
:10331000005301225A72124B03F5005300221A7215
:103320000020FFF7C9FE034614E00E4B00221A707E
:103330000B4B03F5005301225A72094B03F500535E
:1033400000221A720120FFF7B7FE034602E00123B4
:1033500000E00023184680BD000004401800002053
:10336000802400208A44002080B500AFFFF710FFC2
:103370000346002B1AD00F4B1B68022B14D90E48A2
:10338000FFF7F9FD0346002B0ED10C4B03F500535C
:103390005B7ADBB2032B02D14FF4004200E0002243
:1033A000044B1B68134302E000F00AF800231846A0
:1033B00080BD00BF9445002000800840802400208C
:1033C00080B500AF0D48FFF7C9FD0D4B00221A7004
:1033D0000C4B00221A700C4B00221A700B4B03F599
:1033E000005300225A720A4B00221A60094B002235
:1033F0001A70094B01221A7000BF80BD008008407E
:103400008B4400208C4400208D4400208024002028
:10341000944500208F4400209044002080B483B065
:1034200000AF03463960FB71FB79002B07D0FB79B5
:10343000012B04D0FB79022B01D0FB79032B094827
:10344000FA7901213B68994013465B0013441B0144
:10345000034403F50153196000BF0C37BD465DF806
:10346000047B704700C0034080B483B000AF0346C4
:103470003960FB71FB79002B07D0FB79012B04D05D
:10348000FB79022B01D0FB79032B0948FA79012142
:103490003B68994013465B0013441B01034403F54A
:1034A0008253196000BF0C37BD465DF8047B70473E
:1034B00000C0034080B400AF044B002283F8082111
:1034C00000231846BD465DF8047B7047DC450020AC
:1034D000B0B58EB000AF294B07F124041D460FCDC7
:1034E0000FC42B682360264B3C1D1D460FCD0FC417
:1034F00095E80F0084E80F0001213A2001F0DEF882
:103500000121582001F0DAF83B1D7B6301237B7217
:10351000002387F83230012304220421022004F022
:1035200047F8002304220621022004F041F8012379
:1035300002220521022004F03BF800230422072187
:10354000022004F035F80F4B0F4AC3F81C250D4B31
:103550000E4AC3F814250B4B0D4AC3F81825094B26
:103560001C22C3F8042507F124031946094803F077
:10357000B1F900BF3837BD46B0BD00BF44DF000819
:1035800058DF000800C003400200060002000500EA
:103590000200070000400A4080B582B000AF034639
:1035A000FB71FB799BB21946044803F083FA03468A
:1035B000DBB218460837BD4680BD00BF00400A4058
:1035C00080B582B000AF7860396006E07B685A1C35
:1035D0007A601B781846FFF7DFFF3B685A1E3A6097
:1035E000002BF3D100BF00BF0837BD4680BD90B5AA
:1035F00083B000AF7860396007E07C68631C7B6053
:10360000FF20FFF7C9FF034623703B685A1E3A604C
:10361000002BF2D100BF00BF0C37BD4690BD0000AB
:1036200080B582B000AF786000BF124B93F80831CC
:10363000002BFAD10F4B012283F80821042102202C
:10364000FFF7ECFE9F20FFF7A7FF03210A48FFF7D3
:10365000B7FF03217868FFF7CAFF04210220FFF7B4
:1036600003FF044B002283F8082100BF0837BD4642
:1036700080BD00BFDC450020CC45002080B500AFF8
:1036800000BF144B93F80831002BFAD1114B0122E3
:1036900083F8082104210220FFF7E6FE042102201E
:1036A000FFF7BCFE6620FFF777FF04210220FFF73B
:1036B000DBFE04210220FFF7B1FE9920FFF76CFF2B
:1036C00004210220FFF7D0FE024B002283F80821DC
:1036D00000BF80BDDC45002080B584B000AFF8603D
:1036E000B9607A6000BF184B93F80831002BFAD10B
:1036F000154B012283F8082104210220FFF78EFEDA
:103700000320FFF749FFFB681B0CDBB21846FFF7ED
:1037100043FFFB681B0ADBB21846FFF73DFFFB685F
:10372000DBB21846FFF738FF7968B868FFF75FFF2C
:1037300004210220FFF798FE034B002283F80821A2
:1037400000BF1037BD4680BDDC45002080B584B089
:1037500000AFF860B9607A6000BF184B93F8083189
:10376000002BFAD1154B012283F8082104210220F5
:10377000FFF754FE0220FFF70FFFFB681B0CDBB2C4
:103780001846FFF709FFFB681B0ADBB21846FFF774
:1037900003FFFB68DBB21846FFF7FEFE7968B868E6
:1037A000FFF70EFF04210220FFF75EFE034B00220D
:1037B00083F8082100BF1037BD4680BDDC450020DE
:1037C00080B584B000AF786039607B681B02FB6015
:1037D00000BF154B93F80831002BFAD104210220C9
:1037E000FFF71CFE0320FFF7D7FEFB681B0CDBB2C4
:1037F0001846FFF7D1FEFB681B0ADBB21846FFF73D
:10380000CBFEFB68DBB21846FFF7C6FE4FF48071B3
:103810003868FFF7ECFE04210220FFF725FE00BF09
:103820001037BD4680BD00BFDC45002080B58AB0A2
:1038300006AF786039607B681B02FB6000BF294BD4
:1038400093F80831002BFAD1264B012283F8082186
:1038500004210220FFF7E2FD0220FFF79DFEFB6836
:103860001B0CDBB21846FFF797FEFB681B0ADBB2A6
:103870001846FFF791FEFB68DBB21846FFF78CFE97
:1038800000211948FEF7C2F8174B1868002304936B
:10389000164B0393002302934FF48073019301238B
:1038A00000933B68124A1349FEF77CF900BF0D4BA9
:1038B00093F80831002BFAD101E00F4BDB6B0E4B74
:1038C0009B6C03F08003002BF7D1074B1B68184655
:1038D000FEF7EEF804210220FFF7C6FD00BF103707
:1038E000BD4680BDDC450020E8460020B534000818
:1038F00044400A400100120000400A4080B483B0F6
:1039000000AF0346FB7197F90730002B0BDBFB7907
:1039100003F01F02074997F907305B09012000FAFD
:1039200002F241F8232000BF0C37BD465DF8047B4E
:10393000704700BF00E100E080B483B000AF0346F1
:103940003960FB7197F90730002B0ADB3B68DAB26C
:103950000C4997F907301201D2B20B4483F80023C7
:103960000AE03B68DAB20849FB7903F00F03043B35
:103970001201D2B20B441A7600BF0C37BD465DF877
:10398000047B704700E100E000ED00E080B582B00C
:1039900000AF78607B68013BB3F1807F01D30123E6
:1039A0000FE00A4A7B68013B53600F214FF0FF3064
:1039B000FFF7C2FF054B00229A60044B07221A60F2
:1039C000002318460837BD4680BD00BF10E000E068
:1039D00080B584B002AF396011461A460346FB71C8
:1039E0000B46BB7113467B71BA79F8793B7C019326
:1039F0007B79009313463A68396803F04DFD00BFA8
:103A00000837BD4680BD80B483B000AF78603960B0
:103A10007B6803F500531A463B68536200BF0C37BE
:103A2000BD465DF8047B704780B400AF4FF098430B
:103A30005B6C03F48013002B14BF01230023DBB263
:103A40001846BD465DF8047B704780B500AF00BFE7
:103A5000FFF7EAFF034683F00103DBB2002BF7D147
:103A600000BF00BF80BD80B500AFFFF7EEFF4FF095
:103A700098435B6D03F47023184680BD90B583B006
:103A800000AF124C3B461249184604F06AFA22462F
:103A90003B4693E8030082E803000C4B1B68184682
:103AA000FCF7C8FC0B4BD3E90023FCF799FD024659
:103AB0000B460949C1E900234FF400710448FFF7A0
:103AC000A2FF00BF0C37BD4690BD00BF1C470020C1
:103AD000004000499800002028470020B0B58EB073
:103AE00000AF234A07F1300392E803001860043363
:103AF000198002330A0C1A701E4B07F11C041D4674
:103B00000FCD0FC42B6823601B4A07F1100307CAAF
:103B100003C31A800233120C1A70184B3C460FCBA9
:103B200084E80F00002387F829300023FB7407F195
:103B30001C03184601F07AFF07F11003184602F043
:103B40008FF80321802001F01FFB002000F0E6FD2C
:103B500003460B4AA2FB03239B091846FFF716FFF7
:103B600001214A2000F0AAFD00BF3837BD46B0BD94
:103B700078DF000880DF000894DF0008A0DF00087D
:103B8000D34D621090B587B002AF01213A2000F00A
:103B900095FD002304220921002003F009FD0023E4
:103BA00004220421002003F003FD0123012201214E
:103BB000012003F0FDFC1A20FFF7A0FE0123009373
:103BC0000123002201210120FFF702FF00214FF015
:103BD000FF30FFF7B1FE03211A20FFF7ADFE0121F0
:103BE0002E2000F06BFD01230A220321002003F0A8
:103BF000DFFC01230A220521002003F0D9FC0E4B33
:103C00000322C3F838250C4B4FF44032C3F83C254F
:103C1000094B4FF4A022C3F84025084B3C460FCB7C
:103C200084E80F003B4619464FF0964003F04CFEE7
:103C300000BF1437BD4690BD00C00340B0DF000890
:103C4000B0B588B000AF01213A2000F037FD012166
:103C5000572000F033FD134B3C461D460FCD0FC4DB
:103C600095E80F0084E80F000123042205210120BC
:103C700003F09EFC0C4B0D4AC3F8FC240A4B1022A7
:103C8000C3F8E4244FF4E133BB603B4619460848CF
:103C900002F0FEFD01210E20FFF74EFE00BF20378F
:103CA000BD46B0BDC0DF000800C0034001000500F4
:103CB00000000A4080B582B000AF02F0BDFC786021
:103CC0000F4B1A680F4B1B6813440D4A13600C4BC3
:103CD0001B68C3F30A030A4A13600B4B00221A70D5
:103CE0000A4B1B681846FDF7E3FE786802F0B5FC46
:103CF00000F00EF8002318460837BD4680BD00BF0F
:103D00004050002044500020344F0020384F002005
:103D100080B588B006AF02F08FFC7860324B1A682D
:103D2000324B1B689A4203D0314B1B78002B03D0D7
:103D3000786802F092FC53E02D4B01221A702A4B56
:103D40001B68C3F30A03284A1360284B1B68C3F39C
:103D50000A03264A1360244B1A68244B1B68D31AA3
:103D6000244A1360234B1B68C3F30A03214A1360E0
:103D70001E4B1B68C3F500631F4A13601D4B1A6876
:103D80001D4B1B689A4203D91B4B1B68194A1360D1
:103D9000184B1B68C3F30A03164A1360786802F0D5
:103DA0005CFC00211548FDF731FE38603B68002BB4
:103DB00016D1124B18680D4B1B68114A13440D4A5B
:103DC00012681146002204920E4A039200220292C7
:103DD0000191012200920C4A0C49FDF7E3FE386084
:103DE0000837BD4680BD00BF3C5000204050002039
:103DF000344F0020445000204C500020384F002009
:103E000034470020B53C000844000A40010011007E
:103E10000FB480B584B000AF4A4BFB6007F11C03C0
:103E20007B607B68BA694FF48071464805F094FA6C
:103E300003461A46444B1A6002F0FEFBB860434B3F
:103E40001B68C3F30A03414A1360414B1B68C3F369
:103E50000A033F4A13603E4B1A683C4B1B68D31A57
:103E6000013B3C4A13603B4B1B68C3F30A03394ACE
:103E70001360B86802F0F1FB24E000BF364B1B78FA
:103E8000002BFBD102F0D8FBB860304B1B68C3F3AA
:103E90000A032E4A13602E4B1B68C3F30A032C4AF5
:103EA00013602B4B1A68294B1B68D31A013B294A14
:103EB0001360284B1B68C3F30A03264A1360B868D3
:103EC00002F0CBFB204B1A68224B1B689A42D4D8D5
:103ED00002F0B2FBB86021E0FA68531CFB601B4B98
:103EE0001B68591C1948016011781C4AD154174BA2
:103EF0001B68C3F30A03154A1360144B1A68144B6A
:103F00001B689A420AD1114B1B68013B0F4A136090
:103F10000E4B1B68C3F30A030C4A13600A4B1B6861
:103F20005A1E09490A60002BD6D1B86802F095FBE9
:103F3000FFF7EEFE00BF1037BD46BDE8804004B07D
:103F4000704700BF3C4F0020505000203C500020E4
:103F50004050002054500020344F002034470020AF
:103F600080B485B000AF7860084B1B68FB6000BF71
:103F7000064B1A68FB68D31A7A689A42F8D800BFD1
:103F800000BF1437BD465DF8047B70473047002002
:103F900080B400AF044B1B680133034A136000BFB9
:103FA000BD465DF8047B70473047002080B584B083
:103FB00000AF144BFB60134B4FF0E0621A60114BE3
:103FC00000225A600F4B00229A600E4B0022DA61E9
:103FD0000D4A3B4607CA83E807003B461946F86886
:103FE00004F032F90121F86804F04FF9F86804F0A0
:103FF00069F9FFF738FD054B1B6818461037BD46B9
:1040000080BD00BFF0460020E0DF000858500020CF
:1040100080B400AF074B084A9A60064BD3F888304B
:10402000044A43F47003C2F8883000BFBD465DF80F
:10403000047B704700ED00E00000000880B400AF92
:10404000034B1B681846BD465DF8047B704700BFF4
:10405000A800002080B582B000AF00237B600E4B2B
:104060001B6F03F00703032B09D0032B0ED8012B82
:1040700009D0022B0AD1FFF7E1FF786007E0074B78
:104080001B687B6003E0064B7B6000E0FEE77B681B
:1040900018460837BD4680BD00800040A0000020C3
:1040A000002D310180B582B000AFFFF7D3FF7860FB
:1040B000094B1B6F1B0B03F00F033B603B68013385
:1040C0007A68B2FBF3F37B60044A7B6813607B6819
:1040D00018460837BD4680BD00800040AC00002077
:1040E00080B400AF024B1846BD465DF8047B7047B4
:1040F00000B4C40480B400AF034B1B681846BD462F
:104100005DF8047B704700BFA000002080B400AFC2
:1041100000231846BD465DF8047B704780B400AFAD
:10412000024B1846BD465DF8047B7047002D3101F7
:1041300080B483B000AF00237B604FF094439B6852
:104140001B0C03F01F030C2B4CD801A252F823F0D8
:1041500085410008E5410008E5410008E541000807
:10416000E5410008E5410008C1410008C7410008D9
:10417000CD410008E5410008D3410008D9410008BD
:10418000DF4100084FF094439B6803F04073B3F1A4
:10419000007F0ED0B3F1007F0ED8002B03D0B3F117
:1041A000807F03D008E0134B7B6008E0124B7B60FC
:1041B00005E0124B7B6002E000237B6000BF12E051
:1041C0000F4B7B600FE00F4B7B600CE00E4B7B6076
:1041D00009E00E4B7B6006E00D4B7B6003E00D4B6E
:1041E0007B6000E000BF7B6818460C37BD465DF879
:1041F000047B704700093D0080841E0040420F0090
:10420000405DC6000024F400C0EA210180BA8C01A0
:104210000048E801005A620280B400AF4FF4004346
:104220001846BD465DF8047B704780B400AF4FF47C
:104230007A731846BD465DF8047B704780B400AFC2
:10424000034B1B681846BD465DF8047B704700BFF2
:10425000A4000020FFBE704700BFFFBE704700BF34
:10426000FFBE704700BFFFBE704700BFFFBE704774
:1042700000BFFFBE704700BFFFBE704700BFFFBE5C
:10428000704700BFFFBE704700BFFFBE704700BF52
:10429000FFBE704700BFFFBE704700BFFFBE704744
:1042A00000BFFFBE704700BFFFBE704700BFFFBE2C
:1042B000704700BFFFBE704700BFFFBE704700BF22
:1042C000FFBE704700BFFFBE704700BFFFBE704714
:1042D00000BFFFBE704700BFFFBE704700BFFFBEFC
:1042E000704700BFFFBE704700BFFFBE704700BFF2
:1042F000FFBE704700BFFFBE704700BFFFBE7047E4
:1043000000BFFFBE704700BFFFBE704700BFFFBECB
:10431000704700BFFFBE704700BFFFBE704700BFC1
:10432000FFBE704700BFFFBE704700BFFFBE7047B3
:1043300000BFFFBE704700BFFFBE704700BFFFBE9B
:10434000704700BFFFBE704700BFFFBE704700BF91
:10435000FFBE704700BFFFBE704700BFFFBE704783
:1043600000BFFFBE704700BFFFBE704700BFFFBE6B
:10437000704700BFFFBE704700BFFFBE704700BF61
:10438000FFBE704700BFFFBE704700BFFFBE704753
:1043900000BFFFBE704700BFFFBE704700BFFFBE3B
:1043A000704700BFFFBE704700BFFFBE704700BF31
:1043B000FFBE704700BFFFBE704700BFFFBE704723
:1043C00000BFFFBE704700BFFFBE704700BFFFBE0B
:1043D000704700BFFFBE704700BFFFBE704700BF01
:1043E000FFBE704700BFFFBE704700BF0C4D0D4CB5
:1043F00003E02B682360043504340B4B9C42F8D156
:104400000A4C02E0002323600434094B9C42F9D19A
:10441000FFF7FEFD04F0BEFAFCF730FEFEE700BF3A
:10442000CCE3000800000020800200208002002071
:104430008C50002080B500AFFFF734FE03461846CD
:1044400080BD80B487B000AFF860B9607A607B68E7
:10445000002B04D0FB6803F580537B6103E0FB680D
:1044600003F500537B617B690121BA6801FA02F20E
:104470001A6000BF1C37BD465DF8047B704780B4EE
:1044800083B000AF786039607B681A683B6822FAB5
:1044900003F303F0010318460C37BD465DF8047BB7
:1044A000704780B586B000AFF860B9607A6002F0FE
:1044B000C3F87861FB681A68BB68DB431A40796807
:1044C000BB680B401A43FB681A60786902F0C5F8B4
:1044D00000BF1837BD4680BD80B500AF00BF0421C6
:1044E0000448FFF7CCFF0346002BF8D100BF00BF04
:1044F00080BD00BF8440004080B500AFFFF7ECFFF7
:104500004FF04023D3F884309B0903F00303DBB260
:10451000184680BD80B485B000AF0346FB80002301
:10452000FB60FB88B3F5607F1AD0B3F5607F2EDCAB
:10453000B3F5207F24D0B3F5207F28DCB3F5007FCE
:1045400016D0B3F5007F22DC002B02D0B3F5C07F7C
:104550001DD1134B1B6F1B0B03F00F03FB6017E008
:104560000F4BD3F880301B0903F00303FB600FE00F
:104570000B4BD3F890301B0E03F01F03FB6007E0DA
:10458000074B1B6F9B0A03F00103FB6000E000BFB9
:10459000FB68013318461437BD465DF8047B70474D
:1045A0000080004090B583B000AF03463960FB80C7
:1045B000FB88B3F5607F3FD0B3F5607F76DCB3F561
:1045C000207F62D0B3F5207F70DCB3F5007F49D047
:1045D000B3F5007F6ADC002B02D0B3F5C07F65D154
:1045E0003B68012B0AD03B68022B07D03B68042BA9
:1045F00004D03B68082B01D03B68102B00BF01F0B2
:104600004DFF01F0EBFE2C4B1B6F23F470423B6817
:10461000013B1B03284913430B67FFF70BFF0446BD
:10462000FFF76AFF0346C3F102031946204601F073
:104630007DFB01F0DDFE3AE03B68012B04D03B68D6
:10464000022B01D03B68042B00BF1B4BD3F88030FA
:1046500023F030023B68013B1B0117491343C1F8AB
:10466000803024E03B68002B02D03B68202B00BF49
:10467000114BD3F8903023F0F8523B68013B1B06F6
:104680000D491343C1F8903011E03B68012B01D074
:104690003B68022B00BF084B1B6F23F480623B6812
:1046A000013B9B02044913430B6700E000BF00BFBE
:1046B0000C37BD4690BD00BF0080004080B584B07F
:1046C00000AF03460A46FB8013467B710023FB6064
:1046D000FB885B099BB2002B0ED0FB885B099BB269
:1046E000012B02D10B4BFB6006E0FB885B099BB200
:1046F000022B01D1084BFB60FB8803F01F03BB605A
:104700007B791A46B968F868FFF79BFE00BF10373F
:10471000BD4680BD648000406880004090B585B093
:1047200000AF0346FB800023FB600023BB60FB88D7
:10473000B3F5406F00F0ED82B3F5406F00F33D83B9
:10474000B3F5386F00F0FA82B3F5386F00F33583B4
:10475000B3F5306F00F02383B3F5306F00F32D8392
:10476000B3F5286F00F01483B3F5286F00F32583A9
:10477000B3F5206F00F00583B3F5206F00F31D83C0
:10478000B3F5186F00F0F682B3F5186F00F31583D8
:10479000B3F5106F00F0E082B3F5106F00F30D83F6
:1047A000B3F5F06F00F00283B3F5F06F00F305830B
:1047B000B3F5E06F00F0D782B3F5E06F00F3FD8250
:1047C000B3F5D06F00F0C182B3F5D06F00F3F5827E
:1047D000B3F5C06F00F0B282B3F5C06F00F3ED82A5
:1047E000B3F5B06F00F09C82B3F5B06F00F3E582D3
:1047F000B3F5A06F00F08682B3F5A06F00F3DD8201
:10480000B3F5806F00F07782B3F5806F00F3D58247
:10481000B3F5607F00F05F82B3F5607F00F3CD8277
:10482000B3F5407F00F04A82B3F5407F00F3C582C4
:10483000B3F5207F00F03682B3F5207F00F3BD8210
:10484000B3F5007F00F02282B3F5007F00F3B5825C
:10485000B3F5807F00F30C82002BC0F2AE82B3F57B
:10486000807F00F2AA8201A252F823F0834C000854
:10487000BB4D0008BB4D0008BB4D0008BB4D0008F8
:10488000BB4D0008BB4D0008BB4D0008BB4D0008E8
:10489000BB4D0008BB4D0008BB4D0008BB4D0008D8
:1048A000BB4D0008BB4D0008BB4D0008BB4D0008C8
:1048B000BB4D0008BB4D0008BB4D0008BB4D0008B8
:1048C000BB4D0008BB4D0008BB4D0008BB4D0008A8
:1048D000BB4D0008BB4D0008BB4D0008BB4D000898
:1048E000BB4D0008BB4D0008BB4D0008834C0008C1
:1048F000A54C0008BB4D0008A54C0008F74C00086B
:10490000F74C0008F74C0008F74C0008F74C00087B
:10491000A54C0008214D0008BD4C00083D4D000885
:104920004B4D0008BD4C0008A54C0008A54C0008E4
:10493000A54C0008BB4D0008BB4D0008BB4D00084E
:10494000BB4D0008BB4D0008BB4D0008BB4D000827
:104950003D4D0008A54C0008A54C0008A54C0008DA
:10496000AD4D0008674D0008A54C0008BB4D000880
:10497000BB4D0008BB4D0008BB4D0008BB4D0008F7
:10498000BB4D0008BB4D0008BB4D0008BB4D0008E7
:10499000BB4D0008BB4D0008BB4D0008754D00081D
:1049A000F74C0008834C0008834C0008834C000837
:1049B000594D0008BD4C0008BD4C0008834D00084F
:1049C000914D0008054D0008134D0008134D0008D7
:1049D000BB4D0008BB4D0008BB4D0008BB4D000897
:1049E000BB4D0008BB4D0008BB4D0008BB4D000887
:1049F000BB4D0008BB4D0008BB4D0008BB4D000877
:104A0000BB4D0008BB4D0008BB4D0008BB4D000866
:104A1000BB4D0008BB4D0008BB4D0008BB4D000856
:104A2000BB4D0008BB4D0008BB4D0008BB4D000846
:104A3000BB4D0008BB4D0008BB4D0008BB4D000836
:104A4000BB4D0008BB4D0008BB4D0008BB4D000826
:104A5000BB4D0008BB4D0008BB4D0008BB4D000816
:104A6000BB4D0008BB4D0008BB4D0008794C000849
:104A7000BB4D0008BB4D0008BB4D0008BB4D0008F6
:104A8000BB4D0008BB4D0008BB4D0008BB4D0008E6
:104A9000BB4D0008BB4D0008BB4D0008BB4D0008D6
:104AA000BB4D0008BB4D0008BB4D0008BB4D0008C6
:104AB000BB4D0008BB4D0008BB4D0008BB4D0008B6
:104AC000BB4D0008BB4D0008BB4D0008BB4D0008A6
:104AD000BB4D0008BB4D0008BB4D0008BB4D000896
:104AE000BB4D0008BB4D0008BB4D0008BB4D000886
:104AF000BB4D0008BB4D0008BB4D0008BB4D000876
:104B0000BB4D0008BB4D0008BB4D0008BB4D000865
:104B1000BB4D0008BB4D0008BB4D0008BB4D000855
:104B2000BB4D0008BB4D0008BB4D0008BB4D000845
:104B3000BB4D0008BB4D0008BB4D0008BB4D000835
:104B4000BB4D0008BB4D0008BB4D0008BB4D000825
:104B5000BB4D0008BB4D0008BB4D0008BB4D000815
:104B6000BB4D0008BB4D0008BB4D0008BB4D000805
:104B7000BB4D0008BB4D0008BB4D0008BB4D0008F5
:104B8000BB4D0008BB4D0008BB4D0008BB4D0008E5
:104B9000BB4D0008BB4D0008BB4D0008BB4D0008D5
:104BA000BB4D0008BB4D0008BB4D0008BB4D0008C5
:104BB000BB4D0008BB4D0008BB4D0008BB4D0008B5
:104BC000BB4D0008BB4D0008BB4D0008BB4D0008A5
:104BD000BB4D0008BB4D0008BB4D0008BB4D000895
:104BE000BB4D0008BB4D0008BB4D0008BB4D000885
:104BF000BB4D0008BB4D0008BB4D0008BB4D000875
:104C0000BB4D0008BB4D0008BB4D0008BB4D000864
:104C1000BB4D0008BB4D0008BB4D0008BB4D000854
:104C2000BB4D0008BB4D0008BB4D0008BB4D000844
:104C3000BB4D0008BB4D0008BB4D0008BB4D000834
:104C4000BB4D0008BB4D0008BB4D0008BB4D000824
:104C5000BB4D0008BB4D0008BB4D0008BB4D000814
:104C6000BB4D0008BB4D0008BB4D00082F4D000890
:104C7000B3F5C07F05D0A0E0FFF7ECF90346FB6079
:104C80009CE0FFF70FFA0346FB6097E0FFF7E2F9BD
:104C900004464FF40070FFF73DFC0346B4FBF3F30A
:104CA000FB608BE0FFF7FEF904464FF42070FFF73E
:104CB00031FC0346B4FBF3F3FB607FE0FFF7F2F94E
:104CC00004464FF42070FFF725FC0346B4FBF3F3D2
:104CD0005B08FB6072E007F108030021184601F051
:104CE000C3F9BC684FF46070FFF714FC0346B4FBD3
:104CF000F3F3FB6062E007F10C030021184601F0BA
:104D000013FA5BE007F10C030021184601F024F8C8
:104D100054E007F10C030021184601F06BF84DE058
:104D200007F10C030021184601F016FB46E007F1DD
:104D30000C030021184601F051FC3FE007F10C0381
:104D40000021184601F048FA38E007F10C03002171
:104D5000184601F0AFFB31E007F10C0300211846C3
:104D600001F0F2FB2AE007F10C030021184601F0E4
:104D700059FB23E007F10C030021184601F082F8EB
:104D80001CE007F10C030021184601F0B7F815E00C
:104D900007F10C030021184601F000F90EE007F1BD
:104DA0000C030021184601F02DF907E007F10C0370
:104DB0000021184601F04CFA00E000BFFB681846DD
:104DC0001437BD4690BD00BF80B584B000AF034628
:104DD000FB800023FB73FB88B3F5406F00F0A181DB
:104DE000B3F5406F00F3C781B3F5386F00F06F8102
:104DF000B3F5386F00F3BF81B3F5306F00F0B481C5
:104E0000B3F5306F00F3B781B3F5286F00F0A581DB
:104E1000B3F5286F00F3AF81B3F5206F00F09681F2
:104E2000B3F5206F00F3A781B3F5186F00F0878109
:104E3000B3F5186F00F39F81B3F5106F00F05C813C
:104E4000B3F5106F00F39781B3F5086F00F05B8145
:104E5000B3F5086F00F38F81B3F5F06F00F03E817A
:104E6000B3F5F06F00F38781B3F5E06F00F0608178
:104E7000B3F5E06F00F37F81B3F5D06F00F03581BB
:104E8000B3F5D06F00F37781B3F5C06F00F01F81E9
:104E9000B3F5C06F00F36F81B3F5B06F00F002811E
:104EA000B3F5B06F00F36781B3F5A06F00F0328106
:104EB000B3F5A06F00F35F81B3F5806F00F0F98068
:104EC000B3F5806F00F35781802B00F3C580242B4E
:104ED000C0F25181243B5C2B00F24D8101A252F8BB
:104EE00023F000BFB3500008B3500008B3500008CF
:104EF000B3500008B350000877510008A5500008CF
:104F000077510008CF500008EB5000087751000897
:104F10007751000877510008775100087751000851
:104F20007751000877510008775100087751000841
:104F30007751000877510008CF50000877510008DA
:104F40007751000877510008DD5000083151000802
:104F50007751000877510008775100087751000811
:104F60007751000877510008775100087751000801
:104F700077510008775100087751000877510008F1
:104F8000775100083F510008B350000877510008DE
:104F90007751000877510008F95000087751000850
:104FA000775100084D5100085B5100081551000869
:104FB0002351000823510008775100087751000859
:104FC00077510008775100087751000877510008A1
:104FD0007751000877510008775100087751000891
:104FE0007751000877510008775100087751000881
:104FF0007751000877510008775100087751000871
:105000007751000877510008775100087751000860
:105010007751000877510008775100087751000850
:105020007751000877510008775100087751000840
:105030007751000877510008775100087751000830
:105040007751000877510008775100087751000820
:105050007751000861500008B3F5807F30D08AE0B6
:10506000484B1B6F03F00703013B032B16D801A22B
:1050700052F823F097500008855000088B50000824
:10508000915000080523FB730BE00323FB7308E03A
:105090000823FB7305E00223FB7302E00023FB738C
:1050A00000BF69E007F10F031946002001F054F931
:1050B00062E007F10F031946002001F035F85BE0CC
:1050C00007F10F031946002001F088FA54E007F1B8
:1050D0000F031946002001F07FF84DE007F10F03A0
:1050E0001946002001F0B4F846E007F10F03194615
:1050F000002001F0DFF93FE007F10F03194600201F
:1051000001F022FA38E007F10F031946002000F001
:10511000C7FF31E007F10F031946002000F01CFE25
:105120002AE007F10F031946002000F063FE23E098
:1051300007F10F031946002001F074F91CE007F194
:105140000F031946002000F09DFE15E007F10F0344
:105150001946002000F0D2FE0EE007F10F031946B9
:10516000002000F01BFF07E007F10F0319460020A5
:1051700000F048FF00E000BFFB7B18461037BD463B
:1051800080BD00BF0080004090B585B000AF0346F1
:105190000A46FB8013467B710023FB600023FB72F1
:1051A0000023BB72FB88B3F5406F00F06183B3F559
:1051B000406F00F33384B3F5386F00F05682B3F5D7
:1051C000386F00F32B84B3F5306F00F00E84B3F525
:1051D000306F00F32384B3F5286F00F0EF83B3F54D
:1051E000286F00F31B84B3F5206F00F0A983B3F59B
:1051F000206F00F31384B3F5186F00F08383B3F5C9
:10520000186F00F30B84B3F5106F00F09D82B3F5B7
:10521000106F00F30384B3F5086F00F0C182B3F59B
:10522000086F00F3FB83B3F5F06F00F03C82B3F539
:10523000F06F00F3F383B3F5E06F00F04583B3F54F
:10524000E06F00F3EB83B3F5D06F00F04A82B3F563
:10525000D06F00F3E383B3F5C06F00F00682B3F5BF
:10526000C06F00F3DB83B3F5B06F00F05081B3F58E
:10527000B06F00F3D383B3F5A06F00F0C382B3F532
:10528000A06F00F3CB83B3F5806F00F05F81B3F5BF
:10529000806F00F3C383802B00F3C480242BC0F203
:1052A000BD83243B5C2B00F2B98301A252F823F0AA
:1052B0004D5500084D5500084D5500084D55000846
:1052C0004D5500081D5A00080F5500081D5A0008CA
:1052D0006B560008E35600081D5A00081D5A0008C6
:1052E0001D5A00081D5A00081D5A00081D5A0008C2
:1052F0001D5A00081D5A00081D5A00081D5A0008B2
:105300001D5A00086B5600081D5A00081D5A000857
:105310001D5A0008A7560008C95800081D5A000861
:105320001D5A00081D5A00081D5A00081D5A000881
:105330001D5A00081D5A00081D5A00081D5A000871
:105340001D5A00081D5A00081D5A00081D5A000861
:10535000055900084D5500081D5A00081D5A00083F
:105360001D5A0008495700081D5A00081D5A000818
:1053700041590008BD590008055800087158000837
:10538000715800081D5A00081D5A00081D5A0008CF
:105390001D5A00081D5A00081D5A00081D5A000811
:1053A0001D5A00081D5A00081D5A00081D5A000801
:1053B0001D5A00081D5A00081D5A00081D5A0008F1
:1053C0001D5A00081D5A00081D5A00081D5A0008E1
:1053D0001D5A00081D5A00081D5A00081D5A0008D1
:1053E0001D5A00081D5A00081D5A00081D5A0008C1
:1053F0001D5A00081D5A00081D5A00081D5A0008B1
:105400001D5A00081D5A00081D5A00081D5A0008A0
:105410001D5A00081D5A00081D5A00081D5A000890
:105420002F540008B3F5807F00F0C280F6E27B794C
:10543000023B062B33D801A252F823F099540008FE
:105440005F5400089F540008595400089F540008F6
:105450009F540008935400080223FB6020E00323BC
:10546000FB60A94B03F580531A464FF48013536633
:10547000A64B9B6A03F08073002B14BF012300230B
:10548000FB72A24B03F580531A464FF480339362AC
:1054900006E00423FB6003E00123FB6000E000BFA3
:1054A0000121022001F080F900F0F8FF00F096FFE2
:1054B000954B1B6F23F007029349FB6813430B675F
:1054C000FEF7B8FF0446FFF717F80346C3F10203DF
:1054D0001946204600F02AFC0121002001F038F98D
:1054E00000F086FFFB7A83F00103DBB2002B0AD0C9
:1054F0007B79032B09D1854B03F500531A464FF4F2
:105500008033936202E000BF89E200BF87E27B79CB
:105510000F2B06D00F2B0DDC022B08D0072B03D04E
:1055200008E00123FB6006E00323FB6003E00223A5
:10553000FB6000E000BF744BD3F8803123F003021E
:105540007149FB681343C1F8803168E27B79023B03
:10555000052B21D801A252F823F000BF875500087F
:105560007B55000893550008755500088D550008B7
:10557000815500080123FB600FE00223FB600CE073
:105580000423FB6009E00323FB6006E00523FB60C6
:1055900003E00623FB6000E000BF5B4BD3F8203143
:1055A00023F007025849FB681343C1F8203136E263
:1055B0007B79102B09D0102B55DC0B2B02DC092B2F
:1055C00003DA50E00C2B27D04DE04F4B5B6E03F419
:1055D0008033002B0CBF01230023BB724A4B03F521
:1055E00080531A464FF480335366494B5B6A484AEE
:1055F00043F001035362BB7A002B06D0424B03F504
:1056000000531A464FF480335366424B1B68414A9D
:1056100023F00403136027E03B4B5B6E03F48033FD
:10562000002B0CBF01230023BB72374B03F58053C3
:105630001A464FF480335366354B5B6A344A23F085
:1056400001035362BB7A002B06D02F4B03F50053A6
:105650001A464FF4803353662E4B1B682D4A43F095
:105660000403136000E000BFD9E17B790B2B0BD062
:105670000B2B0CDC092B04D00A2B08D10123FB6077
:1056800006E00223FB6003E00323FB6000E000BFB1
:105690001D4BD3F8403123F003021B49FB68134331
:1056A000C1F84031BBE17B790B2B0BD00B2B0CDC11
:1056B000092B04D00A2B08D10123FB6006E002234A
:1056C000FB6003E00323FB6000E000BF0E4BD3F858
:1056D000603123F003020C49FB681343C1F86031C9
:1056E0009DE17B79093B052B22D801A252F823F0DA
:1056F0001F570008195700082557000831570008A0
:10570000315700082B570008008000400040004A35
:1057100000C0074010E000E00123FB6009E0022325
:10572000FB6006E00323FB6003E00423FB6000E072
:1057300000BFB24BD3F8003223F00702AF49FB6839
:105740001343C1F800326AE17B79093B052B1BD872
:1057500001A252F823F000BF7757000871570008E4
:105760007D570008895700088957000883570008AB
:105770000123FB6009E00223FB6006E00323FB60DA
:1057800003E00423FB6000E000BF9C4BD3F8083229
:1057900023F007029949FB681343C1F808323EE140
:1057A0007B79013B082B21D801A252F823F000BFDE
:1057B000E7570008ED570008D5570008ED570008D7
:1057C000ED570008ED570008ED570008E1570008B5
:1057D000DB5700080123FB6009E00223FB6006E0C1
:1057E0000323FB6003E00023FB6000E000BF834B6A
:1057F000D3F8003123F003028049FB681343C1F85A
:1058000000310CE17B79073B0A2B25D801A252F825
:1058100023F000BF475800085958000853580008A3
:105820004D580008595800085958000859580008A0
:10583000595800085958000859580008415800089C
:105840000123FB6009E00223FB6006E00323FB6009
:1058500003E00423FB6000E000BF684BD3F8203274
:1058600023F007026549FB681343C1F82032D6E0F4
:105870007B79023B052B1BD801A252F823F000BF15
:10588000A5580008AB580008B158000899580008FE
:10589000B15800089F5800080123FB6009E0042369
:1058A000FB6006E00323FB6003E00223FB6000E0F3
:1058B00000BF524BD3F8283123F007024F49FB6851
:1058C0001343C1F82831AAE07B790B2B0BD00B2BAB
:1058D0000CDC092B04D00A2B08D10123FB6006E065
:1058E0000223FB6003E00323FB6000E000BF434BA7
:1058F000D3F8403223F003024049FB681343C1F858
:1059000040328CE07B790B2B0BD00B2B0CDC092B62
:1059100004D00A2B08D10123FB6006E00223FB60C0
:1059200003E00323FB6000E000BF344BD3F85032A8
:1059300023F003023149FB681343C1F850326EE093
:105940007B79023B0E2B2DD801A252F823F000BF29
:105950008D590008A5590008A5590008A559000847
:10596000A559000893590008A5590008A559000831
:10597000A5590008A5590008A5590008A55900080F
:10598000A5590008995900089F5900080323FB6096
:1059900009E00423FB6006E00123FB6003E002232F
:1059A000FB6000E000BF154BD3F8603223F0070224
:1059B0001249FB681343C1F8603230E07B79102B49
:1059C00002D0142B03D005E00123FB6002E0022388
:1059D000FB6000BF094BD3F8703223F00302074984
:1059E000FB681343C1F8703219E07B79022B02D0B7
:1059F000072B05D007E00123FB6004E00080004096
:105A00000223FB6000BF084BD3F8903223F003025F
:105A10000549FB681343C1F8903200E000BF00BFA6
:105A20001437BD4690BD00BF0080004080B584B0F3
:105A300000AF78608020FFF7C7F90346032B00F022
:105A4000FD80804B03F580531A464FF48013536654
:105A50007D4B45F60E02C3F880207B4B03F5805347
:105A60001A464FF0A0639362774B03F500531A4632
:105A70004FF48033936200BF734B9B6D03F480330C
:105A8000002BF9D17B681B781A067B685B781B05B5
:105A90001A437B68DB781B041A437B681B791B0362
:105AA0001A437B685B799B0113437A6892791A43A6
:105AB000654B1A61644B9B6903F000437A68D279A5
:105AC000920613437A68127A120613437A68527A5E
:105AD000120413437A68927A120213437A68D27AD4
